:020000040800F2
:10000000E8070020590200086102000863020008A6
:10001000650200086702000869020008000000008D
:100020000000000000000000000000006B0200085B
:100030006D020008000000006F020008AD08000813
:1000400073020008730200087302000873020008BC
:1000500073020008730200087302000873020008AC
:10006000730200087302000873020008730200089C
:10007000730200087302000873020008730200088C
:1000800073020008730200087302000800000000F9
:1000900000000000000000000000000073020008E3
:1000A000730200087302000873020008730200085C
:1000B000730200087302000873020008730200084C
:1000C000730200087302000873020008730200083C
:1000D00073020008730200087302000800000000A9
:1000E00015030008730200087302000800000000F6
:1000F0000000000000000000000000007302000883
:100100000000000073020008730200087302000878
:1001100000000000000000000000000000000000DF
:1001200073020008730200087302000873020008DB
:100130007302000800000000000000000000000042
:100140000000000000000000000000007302000832
:1001500073020008730200087302000873020008AB
:100160007302000873020008000000000000000095
:10017000000000000000000000000000000000007F
:1001800000000000730200080000000000000000F2
:10019000730200087302000800F002F800F04CF847
:1001A0000AA090E8000C82448344AAF10107DA45D2
:1001B00001D100F041F8AFF2090EBAE80F0013F0D8
:1001C000010F18BFFB1A43F001031847AC080000E9
:1001D000CC0800000A4410F8014B14F00F0508BFCA
:1001E00010F8015B240908BF10F8014B6D1E05D003
:1001F00010F8013B6D1E01F8013BF9D1641E03D0DC
:10020000641E01F8015BFBD19142E4D3704700000A
:100210000023002400250026103A28BF78C1FBD80F
:10022000520728BF30C148BF0B6070471FB500F0B0
:1002300015FC1FBD10B510BD00F031F81146FFF7D9
:10024000F5FF00F0BBFB00F04FF803B4FFF7F2FF3F
:1002500003BC00F057F800000948804709480047F0
:10026000FEE7FEE7FEE7FEE7FEE7FEE7FEE7FEE766
:10027000FEE7FEE704480549054A064B70470000C3
:100280001D09000899010008E8010020E807002086
:10029000E8030020E8030020704770477047754668
:1002A00000F02CF8AE4605006946534620F00700E2
:1002B000854618B020B5FFF7DDFFBDE820404FF0C0
:1002C00000064FF000074FF000084FF0000BAC465F
:1002D000ACE8C009ACE8C009ACE8C009ACE8C009AA
:1002E00021F007018D46704710B50446AFF300803A
:1002F0002046BDE81040FFF7A8BF00000048704747
:100300006001002001491820ABBEFEE72600020074
:100310007047000080B50D2000F046FB002808BFA4
:1003200080BD00F0A7FA0D2000F026FB80BD000084
:1003300043F60042C4F201020121136801FA00F001
:1003400018431060704700002DE9F04198461646AA
:100350000D4600F03DFB43F64401C4F202010A6879
:1003600043F6084342F480420A60E91705EB9171B5
:1003700021F00301C4F201034FF60047CC18CFF679
:10038000FF774FF00F0CE2590CFA01F122EA01015C
:10039000E1516FF02F0101EB8501E25988401043D4
:1003A000E05101201968A8408143196043F60C41CF
:1003B000C4F201010A6822EA00000860F0431A68EA
:1003C000A84010431860086806FA05F21043086058
:1003D0002846FFF7ADFF681F052801D2172506E064
:1003E000A5F10A00052888BFBDE8F0812825284628
:1003F00000F0A2FA2846414600F0AEFABDE8F081CE
:1004000070B5054600F13E4000F1FF704FEAB020A4
:10041000144603280E4632D8DFE800F00216242FD7
:1004200000F08AF840F60040C4F20200854224D071
:1004300040F60000C4F20200854213D040F20040B2
:10044000C4F2020085421AD100F080F840F6004064
:10045000C4F20200854210D040F60000C4F202004F
:1004600085420CD100F07CF840F60040C4F2020056
:10047000854208BF00F07EF801E000F07BF82846D6
:100480003146224600F002F870BD000080B54900F8
:100490004FF0030CD0F800E00CFA01F32EEA03034E
:1004A0000360036802FA01F11943016080BD000096
:1004B00080B549004FF0030CD0F808E00CFA01F3C6
:1004C0002EEA03038360836802FA01F11943816015
:1004D00080BD000080B54FF0010CD0F804E00CFAAC
:1004E00001F32EEA03034360436802FA01F1194362
:1004F000416080BD80B549004FF0030CD0F80CE09E
:100500000CFA01F32EEA0303C360C36802FA01F197
:100510001943C16080BD000080B54FF0010CD0F8D8
:1005200014E00CFA01F32EEA03034361436902FA73
:1005300001F11943416180BD43F63000C4F202006D
:10054000016841F0010101607047000043F630008E
:10055000C4F20200016841F002010160704700002E
:1005600043F63000C4F20200016841F0040101606A
:100570007047000043F63000C4F20200016841F009
:10058000080101607047000043F60800C4F2020051
:10059000D0F8F81321F00F01C0F8F813D0F8F813D1
:1005A00041F00201C0F8F81350F8081C41F00101B5
:1005B00040F8081C50F8081C8907FBD550F8081CA7
:1005C000542221F0807140F8081C50F8041C21F4DA
:1005D000800140F8041C50F8041C40F8041C50F83A
:1005E000041C62F38E1140F8041C50F8041C08220D
:1005F00062F3050140F8041C50F8041C21F440315A
:1006000040F8041C50F8081C41F0807140F8081CA8
:1006100050F8081C8901FBD4016821F00301016036
:10062000016841F002010160016801F00C01082934
:10063000FAD1016821F0F0010160016821F4E05174
:100640000160016841F480510160016821F460415A
:10065000016040F200004BF60051C2F20000C0F20F
:1006600001510160704700002DE9F04F81B005464F
:10067000DDE90C98DDE90ABA40F2C410C2F20000CC
:100680001446056041608260C360C0F810B0C0F8D5
:1006900014A0C0F81890C0F81C80284601221E46FD
:1006A0000F46FFF7ADFE204631460122FFF7A8FEB8
:1006B000584651460122FFF7A3FE48464146012213
:1006C000FFF79EFE284639460022FFF713FF20461B
:1006D00031460022FFF70EFF584651460022FFF731
:1006E00009FF484641460022FFF704FF28463946E5
:1006F0000022FFF7EFFE204631460022FFF7EAFE18
:10070000584651460022FFF7E5FE48464146002282
:10071000FFF7E0FE284639460222FFF7C9FE2046D1
:1007200031460222FFF7C4FE584651460222FFF727
:10073000BFFE484641460222FFF7BAFE01B0BDE8BF
:10074000F08F0000B0B540F2C414C2F2000459B1F9
:10075000012918BFB0BD2368616840F2040500EBB1
:100760004000C2F2000507E02368616840F23405EA
:1007700000EBC000C2F2000515F8202005EB800553
:10078000C2F3C0021846FFF7C7FEA068E1682A78E6
:10079000C2F38002FFF7C0FE206961692A78C2F3C4
:1007A0004002FFF7B9FEA069E1692A7802F0010270
:1007B000FFF7B2FEB0BD0000B1FA81F25209012983
:1007C00018BF510040F25C12C2F2000240F2541312
:1007D0001268C2F200031B684843504358434EF668
:1007E0006021B1FBF0F040F25811C2F20001086044
:1007F000704700002DE9F04740F2C416C2F200062F
:100800003062306A0128B8BFBDE8F087B1FA81F0E4
:1008100040F2581840F2340940F2040A14464709DD
:100820000025C2F20008C2F20009C2F2000A11E07B
:1008300005EBC50009EB800000EB870050F8045F72
:1008400028462146FFF77EFF306A01383062306A61
:1008500000280CDDD8F8000000F09AF8002CE7D052
:10086000012CEDD105EB45000AEB8000E4E7BDE883
:10087000F087000010B540F2C414C2F2000400205A
:100880002062206861680022FFF746FEA068E168E8
:100890000022FFF741FE206961690022FFF73CFE5C
:1008A000A069E1690022FFF737FE10BD40F2C010D9
:1008B000C2F200000168002908BF704701680139D1
:1008C000016070474EF21000CEF20000016821F086
:1008D00001010160704700004EF21000CEF20000EE
:1008E000016841F0010101607047000010B5FFF799
:1008F000E9FF4EF21004CEF200045320606000F0D5
:1009000033F80020A060206840F0040020602068D8
:1009100040F002002060FFF7DFFF10BD4EF6885068
:10092000CEF20000016841F4700101604FF00061F7
:1009300040F8801C70470000C1B200F01F00012287
:1009400002FA00F04EF20012CEF2000242EAD101A9
:1009500021F0030108607047E422C0F2E0020901BF
:1009600062F31F20017070474EF62350CEF2000054
:10097000002101707047000043F61442C4F20102E6
:100980000121136801FA00F018431060704700005D
:100990004FF47A71414340F2C010C2F2000001608E
:1009A00001680029FCD1704743F61441C4F20101EB
:1009B000096821FA00F000F00100704700F024F807
:1009C0004FF4A04000210122FFF714FFFEE70000D2
:1009D000A0F18040A0F501304FEAB02006288EBF7C
:1009E000002002A151F82000704700BF0100000064
:1009F00002000000030000000400000000000000EE
:100A00000000000007000000B0B584B0FFF7BCFD97
:100A10000120FFF76BFF40F20044C4F2020404F52A
:100A2000806528460D2101220023FFF78DFC284612
:100A30000D210022FFF7E4FC05200325CDE900404D
:100A400020460A212246042302940395FFF70CFE58
:100A50000A200121FFF7B0FE04B0B0BDF1EE100A8C
:100A60004FF6FF71C0F2C03120EA010040F0407043
:100A7000E1EE100A70470000980A0008000000200C
:100A800060010000D4010008F00A000860010020A5
:100A90008806000010020008460024F4000C420101
:100AA0004203420682024203420342018209420299
:100AB00042084201021C07420C0220024204420387
:100AC000021C0142064204021C0242024205021CB0
:100AD0000342034206021C0442014207021C058233
:100AE00009021C064220426442400000000000004F
:040000050800019955
:00000001FF
