:020000040800F2
:10000000E8070020590200086102000863020008A6
:10001000650200086702000869020008000000008D
:100020000000000000000000000000006B0200085B
:100030006D020008000000006F020008AD08000813
:1000400073020008730200087302000873020008BC
:1000500073020008730200087302000873020008AC
:10006000730200087302000873020008730200089C
:10007000730200087302000873020008730200088C
:1000800073020008730200087302000800000000F9
:1000900000000000000000000000000073020008E3
:1000A000730200087302000873020008730200085C
:1000B000730200087302000873020008730200084C
:1000C000730200087302000873020008730200083C
:1000D00073020008730200087302000800000000A9
:1000E00015030008730200087302000800000000F6
:1000F0000000000000000000000000007302000883
:100100000000000073020008730200087302000878
:1001100000000000000000000000000000000000DF
:1001200073020008730200087302000873020008DB
:100130007302000800000000000000000000000042
:100140000000000000000000000000007302000832
:1001500073020008730200087302000873020008AB
:100160007302000873020008000000000000000095
:10017000000000000000000000000000000000007F
:1001800000000000730200080000000000000000F2
:10019000730200087302000800F002F800F04CF847
:1001A0000AA090E8000C82448344AAF10107DA45D2
:1001B00001D100F041F8AFF2090EBAE80F0013F0D8
:1001C000010F18BFFB1A43F0010318479C0E0000F3
:1001D000BC0E00000A4410F8014B14F00F0508BFD4
:1001E00010F8015B240908BF10F8014B6D1E05D003
:1001F00010F8013B6D1E01F8013BF9D1641E03D0DC
:10020000641E01F8015BFBD19142E4D3704700000A
:100210000023002400250026103A28BF78C1FBD80F
:10022000520728BF30C148BF0B6070471FB500F0B0
:100230000DFF1FBD10B510BD00F031F81146FFF7DE
:10024000F5FF00F0DFFB00F04FF803B4FFF7F2FF1B
:1002500003BC00F057F800000948804709480047F0
:10026000FEE7FEE7FEE7FEE7FEE7FEE7FEE7FEE766
:10027000FEE7FEE704480549054A064B70470000C3
:100280006909000899010008E8010020E80700203A
:10029000E8030020E8030020704770477047754668
:1002A00000F02CF8AE4605006946534620F00700E2
:1002B000854618B020B5FFF7DDFFBDE820404FF0C0
:1002C00000064FF000074FF000084FF0000BAC465F
:1002D000ACE8C009ACE8C009ACE8C009ACE8C009AA
:1002E00021F007018D46704710B50446AFF300803A
:1002F0002046BDE81040FFF7A8BF00000048704747
:100300006001002001491820ABBEFEE72600020074
:100310007047000080B50D2000F06AFB002808BF80
:1003200080BD00F0A7FA0D2000F04CFB80BD00005E
:1003300043F60042C4F201020121136801FA00F001
:1003400018431060704700002DE9F04198461646AA
:100350000D4600F061FB43F64401C4F202010A6855
:1003600043F6084342F480420A60E91705EB9171B5
:1003700021F00301C4F201034FF60047CC18CFF679
:10038000FF774FF00F0CE2590CFA01F122EA01015C
:10039000E1516FF02F0101EB8501E25988401043D4
:1003A000E05101201968A8408143196043F60C41CF
:1003B000C4F201010A6822EA00000860F0431A68EA
:1003C000A84010431860086806FA05F21043086058
:1003D0002846FFF7ADFF681F052801D2172506E064
:1003E000A5F10A00052888BFBDE8F0812825284628
:1003F00000F0C8FA2846414600F0D4FABDE8F08182
:1004000070B5054600F13E4000F1FF704FEAB020A4
:10041000144603280E4632D8DFE800F00216242FD7
:1004200000F08AF840F60040C4F20200854224D071
:1004300040F60000C4F20200854213D040F20040B2
:10044000C4F2020085421AD100F080F840F6004064
:10045000C4F20200854210D040F60000C4F202004F
:1004600085420CD100F07CF840F60040C4F2020056
:10047000854208BF00F07EF801E000F07BF82846D6
:100480003146224600F002F870BD000080B54900F8
:100490004FF0030CD0F800E00CFA01F32EEA03034E
:1004A0000360036802FA01F11943016080BD000096
:1004B00080B549004FF0030CD0F808E00CFA01F3C6
:1004C0002EEA03038360836802FA01F11943816015
:1004D00080BD000080B54FF0010CD0F804E00CFAAC
:1004E00001F32EEA03034360436802FA01F1194362
:1004F000416080BD80B549004FF0030CD0F80CE09E
:100500000CFA01F32EEA0303C360C36802FA01F197
:100510001943C16080BD000080B54FF0010CD0F8D8
:1005200014E00CFA01F32EEA03034361436902FA73
:1005300001F11943416180BD43F63000C4F202006D
:10054000016841F0010101607047000043F630008E
:10055000C4F20200016841F002010160704700002E
:1005600043F63000C4F20200016841F0040101606A
:100570007047000043F63000C4F20200016841F009
:10058000080101607047000043F60800C4F2020051
:10059000D0F8F81321F00F01C0F8F813D0F8F813D1
:1005A00041F00201C0F8F81350F8081C41F00101B5
:1005B00040F8081C50F8081C8907FBD550F8081CA7
:1005C000542221F0807140F8081C50F8041C21F4DA
:1005D000800140F8041C50F8041C40F8041C50F83A
:1005E000041C62F38E1140F8041C50F8041C08220D
:1005F00062F3050140F8041C50F8041C21F440315A
:1006000040F8041C50F8081C41F0807140F8081CA8
:1006100050F8081C8901FBD4016821F00301016036
:10062000016841F002010160016801F00C01082934
:10063000FAD1016821F0F0010160016821F4E05174
:100640000160016841F480510160016821F460415A
:10065000016040F200004BF60051C2F20000C0F20F
:1006600001510160704700002DE9F04F81B005464F
:10067000DDE90C98DDE90ABA40F2C410C2F20000CC
:100680001446056041608260C360C0F810B0C0F8D5
:1006900014A0C0F81890C0F81C80284601221E46FD
:1006A0000F46FFF7ADFE204631460122FFF7A8FEB8
:1006B000584651460122FFF7A3FE48464146012213
:1006C000FFF79EFE284639460022FFF713FF20461B
:1006D00031460022FFF70EFF584651460022FFF731
:1006E00009FF484641460022FFF704FF28463946E5
:1006F0000022FFF7EFFE204631460022FFF7EAFE18
:10070000584651460022FFF7E5FE48464146002282
:10071000FFF7E0FE284639460222FFF7C9FE2046D1
:1007200031460222FFF7C4FE584651460222FFF727
:10073000BFFE484641460222FFF7BAFE01B0BDE8BF
:10074000F08F0000B0B540F2C414C2F2000459B1F9
:10075000012918BFB0BD2368616840F2040500EBB1
:100760004000C2F2000507E02368616840F23405EA
:1007700000EBC000C2F2000515F8202005EB800553
:10078000C2F3C0021846FFF7C7FEA068E1682A78E6
:10079000C2F38002FFF7C0FE206961692A78C2F3C4
:1007A0004002FFF7B9FEA069E1692A7802F0010270
:1007B000FFF7B2FEB0BD0000B1FA81F25209012983
:1007C00018BF510040F25C12C2F2000240F2541312
:1007D0001268C2F200031B684843504358434EF668
:1007E0006021B1FBF0F040F25811C2F20001086044
:1007F000704700002DE9F04740F2C416C2F200062F
:100800003062306A0128B8BFBDE8F087B1FA81F0E4
:1008100040F2581840F2340940F2040A14464709DD
:100820000025C2F20008C2F20009C2F2000A11E07B
:1008300005EBC50009EB800000EB870050F8045F72
:1008400028462146FFF77EFF306A01383062306A61
:1008500000280CDDD8F8000000F0C0F8002CE7D02C
:10086000012CEDD105EB45000AEB8000E4E7BDE883
:10087000F087000010B540F2C414C2F2000400205A
:100880002062206861680022FFF746FEA068E168E8
:100890000022FFF741FE206961690022FFF73CFE5C
:1008A000A069E1690022FFF737FE10BD40F2C010D9
:1008B000C2F200000168002908BF704701680139D1
:1008C000016070474EF21000CEF20000016821F086
:1008D00001010160704700004EF21000CEF20000EE
:1008E000016841F001010160704700000000000054
:1008F00010B50446FFF7E6FF204600F0A8F99FED8B
:10090000140B53EC102B00F0B5F99FED130B53ECC7
:10091000102B00F0AFF99FED120B53EC102B00F0F1
:10092000C1F800F067F94EF21004CEF200046060E6
:1009300000F040F80020A060206840F00400206033
:10094000206840F002002060FFF7C6FF10BD00BF26
:10095000FCA9F1D24D62503F00000000F406944122
:10096000000000000000F0BF4EF68850CEF20000FC
:10097000016841F4700101604FF0006140F8801C93
:1009800070470000C1B200F01F00012202FA00F01F
:100990004EF20012CEF2000242EAD10121F0030130
:1009A00008607047E422C0F2E002090162F31F20F0
:1009B000017070474EF62350CEF200000021017006
:1009C0007047000043F61442C4F20102012113688B
:1009D00001FA00F0184310607047000040F2C011A7
:1009E000C2F20001086000BF08680028FCD170470F
:1009F00043F61441C4F20101096821FA00F000F045
:100A00000100704700F024F84FF4A04000210122BB
:100A1000FFF7F0FEFEE70000A0F18040A0F50130F6
:100A20004FEAB02006288EBF002002A151F8200016
:100A3000704700BF0100000002000000030000003A
:100A4000040000000000000000000000070000009B
:100A5000B0B584B0FFF798FD0120FFF749FF40F2E1
:100A60000044C4F2020404F5806528460D210122E9
:100A70000023FFF769FC28460D210022FFF7C0FC88
:100A800005200325CDE9004020460A212246042303
:100A900002940395FFF7E8FD0A200121FFF78CFE81
:100AA00004B0B0BD10B591EA030F48BF83F0004316
:100AB00000F1E681841A71EB030C05D2121943EBA5
:100AC0000C03001B61EB0C014FEA1154A4EB135C07
:100AD000DFF81CE11EEA430F18BF9EEA445F00F0F6
:100AE000748021EA045123EA0E0343F48013DCF1FD
:100AF000200E32D322FA0CFE10EB0E0023FA0CFE6D
:100B000041EB0E01CCF1200E03FA0EFE10EB0E00AD
:100B1000CCF1200E51F10001B1F5801F32D201EB72
:100B2000045112FA0EF2BDE8104058BF7047401C45
:100B300038BF5FEA420218BF7047002814BF20F098
:100B4000010041F100014FEA410313F5001F38BFD6
:100B50007047A1F1C04100F085B9012A43EB0302BF
:100B6000ACF1200CDCF11F0E32BF4FF0000E23FA67
:100B70000CF310EB030041EB0451B4EB115FD0D048
:100B8000A1EB045101F58011490801EB04515FEA22
:100B900030000ED350F1000038BF12FA0EFE08D11B
:100BA000BDE81040C9E7401C38BF5FEA4202CAD125
:100BB000C3E7BDE810404FEA410313F5001F38BFFB
:100BC0007047A1F1C04100F04DB99EEA445F08D0E2
:100BD00011EA5E0FBDE8104004BF01F000410020A3
:100BE0007047BDE8104070B500F0EEF864FBBE3E03
:100BF0000000E0FF4FEA1153A3F58063D3F11E0319
:100C0000A8BFD3F1200C08DB4FF0004242EAC1221A
:100C100052EA505232FA03F0704709420BD4102BBB
:100C2000C4BF0020704703F5787CBCF1FF3F05D0BE
:100C30004FF0FF3070474FF00000704770B500F084
:100C4000C3F800BF4992248000207047F0E7B0FA53
:100C500080F310FA03F10AD0C3F11D0303F580639A
:100C60004FEA03524FEA415002EBD12170474FF057
:100C70000000704770B5DFF848C11CEA111E1EBFA6
:100C80001CEA13159EEA0C0F95EA0C0F00F06F801A
:100C900081EA03044EEAD47EAE4421EA4C1123EAF1
:100CA0004C1341F4801143F48013AEF17F7EA1FB1D
:100CB000024CA0FB0365361955EB0C05A1FB034C58
:100CC0004CF10003A0FB021C16EB0C06654153F12E
:100CD0000003094218BF46F0010613F4007F0BD150
:100CE0004FEA03314FEA053041EA155140EA165008
:100CF00034036FF003020AE04FEAC3214FEAC52034
:100D000041EA555140EA5650F4026FF0020202EBFC
:100D10002E4201EB025585EACE710AD05FEA440CFF
:100D200018BF24F0004450F1000041F1000120EA16
:100D3000D47040F2FE7C624500D270BDA84214BF60
:100D40004FF080444FF04044002E08BF0024BEF115
:100D5000806FA8BFA1F1C041BDE8704080F28280E1
:100D600001F1C04101F000414FF0000070470CEA72
:100D700013159EEA0C0F18BF95EA0C0F06D081EAF6
:100D8000030E4FF000000EF0004170BD00F01CF8A3
:100D90008900013E00F007B800F009B84FEA430CA3
:100DA0005FEA5C5C08D081EA030100F05BB84FEABF
:100DB000410C5FEA5C5CF6D102494FF000007047DD
:100DC0000000FF070000F87F0EF1020E2EF0030E68
:100DD0005EF8046B364205D4012A43EB030515F592
:100DE000001F12D8012841EB010C1CF5001F0CD884
:100DF0000ED14FEAD17C0CEB4C0C0CF1020C15F52A
:100E0000001F08BF4CEBD37C04E04FF0080C01E05E
:100E10004FEAD37C0CEB4C0526FA05F606F00706E4
:100E2000B6F1040C06D20EEB860CBDE870404CF017
:100E3000010C6047DFE80CF0090B02024FF00041A3
:100E4000A1F500214FF0000070BD194610460128A1
:100E500051EB010418BFD4F5001484BF002001F049
:100E6000004170BD0808A0F500114FEA310170473C
:100E700010B591EA030F48BF83F000433FF51AAE67
:100E8000841A71EB030C07D28CF0004C121943EB5F
:100E90000C03001B61EB0C014FEA1154A4EB135C33
:100EA000DFF8A4E11EEA430F18BF9EEA445F00F09A
:100EB000B48021EA045123EA6E035242C3EB6E036D
:100EC00038BF5B1EDCF1200E25D322FA0CFE10EB9E
:100ED0000E0043FA0CFE41EB0E01CCF1200E03FA9A
:100EE0000EFE10EB0E00CCF1200E51F1000129D4C2
:100EF00001EB045112FA0EF2BDE8104058BF7047E2
:100F0000401C1CBFB2F1004F704700280CBF491CA9
:100F100020F00100704712EB020E43EB030218BFF2
:100F20004FF0010E4EEA4202ACF1200CDCF11E0E35
:100F300056D943FA0CFE10EB0E00CCF11E0E51F107
:100F4000FF31D5D50EF1010E12FA0EFE404141EBF4
:100F5000010101EB445C5FEA5C5C10D901EB0451D8
:100F600010EBDE7038BFBEF1004FBDE8104018BF77
:100F7000704700280CBF491C20F00100704734D294
:100F80004FEAD42C24F4006411F500111BD0B1FAFF
:100F900081F20B3AA41AA41ED2F12003914030FA38
:100FA00003F31943904001EBCC7101EB0451002C89
:100FB000BDE81040A8BF704701F1C04101F00041F9
:100FC0004FF000007047B0FA80F310FA03F102D13D
:100FD000BDE810407047E41A173C4805C90AE2E72B
:100FE00001EB0451BDE81040704749104FEA300052
:100FF00001EB0451BDE8104002E04FF000017047E2
:101000004A0008BF0042F8D0B2F5001F28BF704761
:1010100001F000414FF0000070479EEA445F07D0A6
:1010200011EA5E0FBDE8104004BF002100207047A8
:10103000BDE8104070B5FFF7C7FE00BF40DFF63EC9
:10104000104683F0004170470000E0FFF1EE100A07
:101050004FF6FF71C0F2C03120EA010040F040704D
:10106000E1EE100A70470000881000080000002020
:1010700060010000D4010008E010000860010020B9
:101080008806000010020008460024F4000C42010B
:1010900042034206820242034203420182094202A3
:1010A00042084201021C07420C0220024204420391
:1010B000021C0142064204021C0242024205021CBA
:1010C0000342034206021C0442014207021C05823D
:1010D00009021C0642204264424000000000000059
:040000050800019955
:00000001FF
