:020000040800F2
:10000000600600201D0200082502000827020008E3
:10001000290200082B0200082D0200080000000041
:100020000000000000000000000000002F02000897
:100030003102000800000000330200083502000809
:1000400037020008370200083702000837020008AC
:10005000370200083702000837020008370200089C
:10006000370200083702000837020008370200088C
:10007000370200083702000837020008370200087C
:1000800037020008370200083702000800000000AD
:10009000000000000000000000000000370200081F
:1000A000370200083702000837020008370200084C
:1000B000370200083702000837020008370200083C
:1000C000370200083702000837020008370200082C
:1000D000370200083702000837020008000000005D
:1000E000D9020008370200083702000800000000AB
:1000F00000000000000000000000000037020008BF
:10010000000000003702000837020008370200082C
:1001100000000000000000000000000000000000DF
:1001200037020008370200083702000837020008CB
:10013000370200080000000000000000000000007E
:10014000000000000000000000000000370200086E
:10015000370200083702000837020008370200089B
:10016000370200083702000800000000000000000D
:10017000000000000000000000000000000000007F
:10018000000000003702000800000000000000002E
:10019000370200083702000800F002F800F02EF8DD
:1001A0000AA090E8000C82448344AAF10107DA45D2
:1001B00001D100F023F8AFF2090EBAE80F0013F0F6
:1001C000010F18BFFB1A43F001031847B4040000E5
:1001D000C40400000023002400250026103A28BF94
:1001E00078C1FBD8520728BF30C148BF0B607047A9
:1001F0001FB500F037FA1FBD10B510BD00F031F883
:100200001146FFF7F5FF00F00BFA00F04FF803B4CA
:10021000FFF7F2FF03BC00F057F8000009488047E1
:1002200009480047FEE7FEE7FEE7FEE7FEE7FEE7D8
:10023000FEE7FEE7FEE7FEE704480549054A064BF0
:1002400070470000B905000899010008600000200F
:1002500060060020600200206002002070477047A6
:100260007047754600F02CF8AE46050069465346C7
:1002700020F00700854618B020B5FFF7DDFFBDE888
:1002800020404FF000064FF000074FF000084FF0FD
:10029000000BAC46ACE8C009ACE8C009ACE8C0094A
:1002A000ACE8C00921F007018D46704710B504463F
:1002B000AFF300802046BDE81040FFF7A8BF000064
:1002C000004870470000002001491820ABBEFEE73F
:1002D000260002007047000080B50D2000F096F95E
:1002E000002808BF80BD00F015F90D2000F082F94C
:1002F00080BD000043F60042C4F2010201211368F0
:1003000001FA00F01843106070470000F0B581B0AA
:10031000A0F18040A0F501301F464FEAB023062B24
:1003200008469ABF1CA151F82310002143F644034C
:10033000C4F202031C6843F6080544F480441C60C0
:10034000C31700EB937323F00303C4F201050F24DA
:100350005E599C40A6435E516FF02F0606EB800667
:100360005C59B1402143595143F60C43C4F2010397
:1003700001211E68814026EA010119601968824046
:1003800011431960FFF7B6FF00F024F9384600F07A
:1003900029F901B0F0BD00BF01000000020000001B
:1003A0000300000004000000000000000000000046
:1003B000070000000A38052888BF704780B5FFF79E
:1003C0008BFFBDE88040704770B5054600F13E40A8
:1003D00000F1FF704FEAB020144603280E4632D8D1
:1003E000DFE800F00216242F00F09CF840F60040F1
:1003F000C4F20200854224D040F60000C4F202009C
:10040000854213D040F20040C4F2020085421AD166
:1004100000F094F840F60040C4F20200854210D08B
:1004200040F60000C4F2020085420CD100F092F8C0
:1004300040F60040C4F20200854208BF00F096F882
:1004400001E000F093F828463146224600F002F819
:1004500070BD000080B549004FF0030CD0F800E0FB
:100460000CFA01F32EEA03030360036802FA01F1B8
:100470001943016080BD000080B549004FF0030CB6
:10048000D0F808E00CFA01F32EEA030383608368D6
:1004900002FA01F11943816080BD000080B54FF080
:1004A000010CD0F804E00CFA01F32EEA03034360D8
:1004B000436802FA01F11943416080BD80B54900EB
:1004C0004FF0030CD0F80CE00CFA01F32EEA030312
:1004D000C360C36802FA01F11943C16080BD000026
:1004E00010B50024C4F20204204605210122FFF7C2
:1004F0006BFF204605210322FFF7BEFF20460521A2
:100500000022FFF7CBFF204605210122FFF7D6FF8F
:1005100010BD00001420C4F20200016881F0200127
:100520000160704780B500F02DF843F63000C4F24A
:100530000200016841F00101016080BD80B500F05A
:1005400021F843F63000C4F20200016841F00201D4
:10055000016080BD80B500F015F843F63000C4F2AC
:100560000200016841F00401016080BD80B500F027
:1005700009F843F63000C4F20200016841F00801B6
:10058000016080BD43F60800C4F2020050F8081C68
:1005900041F0010140F8081C50F8081C8907FBD500
:1005A000016821F00301016001680160016811F038
:1005B0000C0FFBD1704700004EF68850CEF20000C1
:1005C000016841F4700101604FF0006140F8801C47
:1005D000704700004EF20410CEF200004FF480711C
:1005E000016070474EF228410001CEF20001087010
:1005F0007047000043F61442C4F20102012113685F
:1006000001FA00F0184310607047000043F61441EF
:10061000C4F20101096821FA00F000F001007047FE
:1006200000F006F80D20FFF7C5FE00BFFEE7000052
:1006300010B5FFF7A7FFFFF753FF40F60004C4F221
:10064000020420460D2101220023FFF75FFE204611
:100650000D210022FFF7B8FE20460D210222FFF7F0
:100660002DFF10BDF1EE100A4FF6FF71C0F2C03140
:1006700020EA010040F04070E1EE100A70470000EF
:10068000900600080000002060060000D401000869
:040000050800019955
:00000001FF
