:020000040800F2
:100000007006002041020008490200084B02000867
:100010004D0200084F0200085102000800000000D5
:100020000000000000000000000000005302000873
:100030005502000800000000570200080D060008E5
:100040005B0200085B0200085B0200085B0200081C
:100050005B0200085B0200085B0200085B0200080C
:100060005B0200085B0200085B0200085B020008FC
:100070005B0200085B0200085B0200085B020008EC
:100080005B0200085B0200085B0200080000000041
:100090000000000000000000000000005B020008FB
:1000A0005B0200085B0200085B0200085B020008BC
:1000B0005B0200085B0200085B0200085B020008AC
:1000C0005B0200085B0200085B0200085B0200089C
:1000D0005B0200085B0200085B02000800000000F1
:1000E0005B0200085B0200085B02000800000000E1
:1000F0000000000000000000000000005B0200089B
:10010000000000005B0200085B0200085B020008C0
:1001100000000000000000000000000000000000DF
:100120005B0200085B0200085B0200085B0200083B
:100130005B0200080000000000000000000000005A
:100140000000000000000000000000005B0200084A
:100150005B0200085B0200085B0200085B0200080B
:100160005B0200085B0200080000000000000000C5
:10017000000000000000000000000000000000007F
:10018000000000005B02000800000000000000000A
:100190005B0200085B02000800F002F800F041F882
:1001A0000AA090E8000C82448344AAF10107DA45D2
:1001B00001D100F036F8AFF2090EBAE80F0013F0E3
:1001C000010F18BFFB1A43F0010318478C0C000005
:1001D000AC0C0000103A24BF78C878C1FAD8520796
:1001E00024BF30C830C144BF04680C6070470000B1
:1001F0000023002400250026103A28BF78C1FBD830
:10020000520728BF30C148BF0B607047642900F017
:100210007780002070471FB500F010FE1FBD10B59D
:1002200010BD00F049F91146FFF7F5FF00F004FB9F
:1002300000F067F903B4FFF7F2FF03BC00F06EF9BA
:100240000948804709480047FEE7FEE7FEE7FEE76A
:10025000FEE7FEE7FEE7FEE7FEE7FEE704480549A6
:10026000054A064B70470000C906000899010008BE
:100270007000002070060020700200207002002034
:100280000FB4044910B503AA029800F0E7F810BCB7
:100290005DF814FB6C0000202DE9F0410E46044689
:1002A000002020622046E168884730B3252805D029
:1002B000D4E901219047206A401CF2E7E16820461A
:1002C00000278847050018D0A5F14100192802D859
:1002D00020354FF400673246294620462760FFF755
:1002E00095FF40B1012804D0F61D26F00706083618
:1002F000D8E7361DD6E72846DAE7206ABDE8F08160
:100300002DE9F0410646002410687529314616A5EE
:1003100010D0AFF30080002802DA404213A507E0B6
:1003200031688A0701D512A502E0490704D511A555
:10033000012401E0AFF3008000210A2206F1240726
:1003400009E0B0FBF2FCB0FBF2F302FB1C00303022
:1003500078541846491C0028F3D123462A463046D3
:10036000BDE8F04100F021B8000000002D000000C1
:100370002B0000002000000010B5044603E000F050
:1003800049FA401C09D014F8010B05490028F6D1A0
:10039000BDE810400A2000F03DBA4FF0FF3010BD1C
:1003A0006C0000207047704770472DE9F0470D46FC
:1003B00099469246044600F124080168880604D54F
:1003C000E06921F01001216000E00120A84201DD78
:1003D000471B00E00027A1697A1902EB0900081AFF
:1003E000A0612078C00602D42046AFF3008000262A
:1003F00008E0D4E901211AF806009047206A401C61
:10040000761C20624E45F4DB2078C0060AD52046D3
:10041000AFF3008006E0D4E9012130209047206A44
:10042000401C2062381EA7F10107F4DC07E0D4E984
:10043000012118F805009047206A401C2062281E00
:10044000A5F10105F3DC2046AFF30080207800061B
:1004500002D50220BDE8F0870120FBE7074B70B50D
:100460000D467B4400F011F80446284600F020F8C1
:1004700010B14FF0FF3070BD204670BDAF030000DB
:1004800001694A1C02610878704700B58FB0CDE958
:1004900001310021059105497944CDE90310114648
:1004A0006846FFF7F9FE0FB000BD0000E5FFFFFF53
:1004B000007B00F080007047754600F02BF8AE46D8
:1004C00005006946534620F00700854618B020B560
:1004D000FFF7C4FEBDE820404FF000064FF00007D4
:1004E0004FF000084FF0000BAC46ACE8C009ACE898
:1004F000C009ACE8C009ACE8C00921F007018D468D
:10050000704710B50446AFF300802046BDE81040A8
:10051000FFF790BE004870470800002001491820EE
:10052000ABBEFEE7260002007047000043F608005D
:10053000C4F20200D0F8F81321F00F01C0F8F8134C
:10054000D0F8F81341F00201C0F8F81350F8081C75
:1005500041F0010140F8081C50F8081C8907FBD540
:1005600050F8081C542221F0807140F8081C50F803
:10057000041C21F4800140F8041C50F8041C40F8CD
:10058000041C50F8041C62F38E1140F8041C50F84F
:10059000041C082262F3050140F8041C50F8041CF6
:1005A00021F4403140F8041C50F8081C41F08071DF
:1005B00040F8081C50F8081C8901FBD4016821F0A0
:1005C00003010160016841F002010160016801F06E
:1005D0000C010829FAD1016821F0F00101600168DD
:1005E00021F4E0510160016841F48051016001682B
:1005F00021F46041016040F200004BF60051C2F26C
:100600000000C0F2015101607047000040F2680034
:10061000C2F200000168002908BF70470168013973
:10062000016070474EF21000CEF20000016821F028
:1006300001010160704700004EF21000CEF2000090
:10064000016841F0010101607047000000000000F6
:1006500010B50446FFF7E6FF204600F0F0F99FEDE5
:10066000140B53EC102B00F0FDF99FED130B53EC22
:10067000102B00F0F7F99FED120B53EC102B00F04C
:1006800009F900F0AFF94EF21004CEF200046060F8
:1006900000F0A6F80020A060206840F00400206070
:1006A000206840F002002060FFF7C6FF10BD00BFC9
:1006B000FCA9F1D24D62503F00000000F4069441C5
:1006C000000000000000F0BF4EF68850CEF200009F
:1006D000016841F4700101604FF0006140F8801C36
:1006E0007047000080B543F63000C4F20200016993
:1006F00041F2171241F400310161016841F001013A
:1007000001600020C4F20200016821F0F0010160E4
:10071000016841F0A0010160016A41F4EE4101620B
:10072000816841F0F0018160C16821F0F001C16091
:10073000C16841F05001C160416821F00C01416085
:1007400044F20C40C4F20000016821F40051016041
:10075000016821F480510160016821F48061016029
:10076000416821F440514160016821F40041016079
:1007700050F8041C114340F8041C016841F00C01BE
:100780000160816841F0C0018160016841F0200191
:100790000160016841F40051016000F029F800F0A7
:1007A00017F880BD62B14FF0000C00BF03681B0654
:1007B000FCD511F80C300CF1010C94454360F5D1D7
:1007C00001684906FCD5016821F0400101607047CD
:1007D0004EF20410CEF2000040210160704700008C
:1007E0004EF62350CEF20000002101707047000049
:1007F0004EF22640CEF2000010210170704700003A
:1008000040F26801C2F20001086000BF08680028D9
:10081000FCD1704710B582B004468DF8070044F251
:100820000040C4F200000DF107010122FFF7BAFFFA
:10083000204602B010BD000000F018F805A400BF6B
:1008400020466421FFF71CFD4FF47A70FFF7D8FFB4
:10085000F6E700BF48656C6C6F2048616E646F6E90
:10086000672020202564200D0A00000080B5FFF7D6
:100870005DFEFFF737FF0120FFF7EAFE01A0FFF75B
:100880007BFD80BD536574757020636F6D706C6502
:1008900074650D0010B591EA030F48BF83F0004363
:1008A00000F1E681841A71EB030C05D2121943EBB7
:1008B0000C03001B61EB0C014FEA1154A4EB135C19
:1008C000DFF81CE11EEA430F18BF9EEA445F00F008
:1008D000748021EA045123EA0E0343F48013DCF10F
:1008E000200E32D322FA0CFE10EB0E0023FA0CFE7F
:1008F00041EB0E01CCF1200E03FA0EFE10EB0E00C0
:10090000CCF1200E51F10001B1F5801F32D201EB84
:10091000045112FA0EF2BDE8104058BF7047401C57
:1009200038BF5FEA420218BF7047002814BF20F0AA
:10093000010041F100014FEA410313F5001F38BFE8
:100940007047A1F1C04100F085B9012A43EB0302D1
:10095000ACF1200CDCF11F0E32BF4FF0000E23FA79
:100960000CF310EB030041EB0451B4EB115FD0D05A
:10097000A1EB045101F58011490801EB04515FEA34
:1009800030000ED350F1000038BF12FA0EFE08D12D
:10099000BDE81040C9E7401C38BF5FEA4202CAD137
:1009A000C3E7BDE810404FEA410313F5001F38BF0D
:1009B0007047A1F1C04100F04DB99EEA445F08D0F4
:1009C00011EA5E0FBDE8104004BF01F000410020B5
:1009D0007047BDE8104070B500F0EEF864FBBE3E15
:1009E0000000E0FF4FEA1153A3F58063D3F11E032B
:1009F000A8BFD3F1200C08DB4FF0004242EAC1222D
:100A000052EA505232FA03F0704709420BD4102BCD
:100A1000C4BF0020704703F5787CBCF1FF3F05D0D0
:100A20004FF0FF3070474FF00000704770B500F096
:100A3000C3F800BF4992248000207047F0E7B0FA65
:100A400080F310FA03F10AD0C3F11D0303F58063AC
:100A50004FEA03524FEA415002EBD12170474FF069
:100A60000000704770B5DFF848C11CEA111E1EBFB8
:100A70001CEA13159EEA0C0F95EA0C0F00F06F802C
:100A800081EA03044EEAD47EAE4421EA4C1123EA03
:100A90004C1341F4801143F48013AEF17F7EA1FB2F
:100AA000024CA0FB0365361955EB0C05A1FB034C6A
:100AB0004CF10003A0FB021C16EB0C06654153F140
:100AC0000003094218BF46F0010613F4007F0BD162
:100AD0004FEA03314FEA053041EA155140EA16501A
:100AE00034036FF003020AE04FEAC3214FEAC52046
:100AF00041EA555140EA5650F4026FF0020202EB0F
:100B00002E4201EB025585EACE710AD05FEA440C11
:100B100018BF24F0004450F1000041F1000120EA28
:100B2000D47040F2FE7C624500D270BDA84214BF72
:100B30004FF080444FF04044002E08BF0024BEF127
:100B4000806FA8BFA1F1C041BDE8704080F28280F3
:100B500001F1C04101F000414FF0000070470CEA84
:100B600013159EEA0C0F18BF95EA0C0F06D081EA08
:100B7000030E4FF000000EF0004170BD00F01CF8B5
:100B80008900013E00F007B800F009B84FEA430CB5
:100B90005FEA5C5C08D081EA030100F05BB84FEAD1
:100BA000410C5FEA5C5CF6D102494FF000007047EF
:100BB0000000FF070000F87F0EF1020E2EF0030E7A
:100BC0005EF8046B364205D4012A43EB030515F5A4
:100BD000001F12D8012841EB010C1CF5001F0CD896
:100BE0000ED14FEAD17C0CEB4C0C0CF1020C15F53C
:100BF000001F08BF4CEBD37C04E04FF0080C01E071
:100C00004FEAD37C0CEB4C0526FA05F606F00706F6
:100C1000B6F1040C06D20EEB860CBDE870404CF029
:100C2000010C6047DFE80CF0090B02024FF00041B5
:100C3000A1F500214FF0000070BD194610460128B3
:100C400051EB010418BFD4F5001484BF002001F05B
:100C5000004170BD0808A0F500114FEA310170474E
:100C600010B591EA030F48BF83F000433FF51AAE79
:100C7000841A71EB030C07D28CF0004C121943EB71
:100C80000C03001B61EB0C014FEA1154A4EB135C45
:100C9000DFF8A4E11EEA430F18BF9EEA445F00F0AC
:100CA000B48021EA045123EA6E035242C3EB6E037F
:100CB00038BF5B1EDCF1200E25D322FA0CFE10EBB0
:100CC0000E0043FA0CFE41EB0E01CCF1200E03FAAC
:100CD0000EFE10EB0E00CCF1200E51F1000129D4D4
:100CE00001EB045112FA0EF2BDE8104058BF7047F4
:100CF000401C1CBFB2F1004F704700280CBF491CBC
:100D000020F00100704712EB020E43EB030218BF04
:100D10004FF0010E4EEA4202ACF1200CDCF11E0E47
:100D200056D943FA0CFE10EB0E00CCF11E0E51F119
:100D3000FF31D5D50EF1010E12FA0EFE404141EB06
:100D4000010101EB445C5FEA5C5C10D901EB0451EA
:100D500010EBDE7038BFBEF1004FBDE8104018BF89
:100D6000704700280CBF491C20F00100704734D2A6
:100D70004FEAD42C24F4006411F500111BD0B1FA11
:100D800081F20B3AA41AA41ED2F12003914030FA4A
:100D900003F31943904001EBCC7101EB0451002C9B
:100DA000BDE81040A8BF704701F1C04101F000410B
:100DB0004FF000007047B0FA80F310FA03F102D14F
:100DC000BDE810407047E41A173C4805C90AE2E73D
:100DD00001EB0451BDE81040704749104FEA300064
:100DE00001EB0451BDE8104002E04FF000017047F4
:100DF0004A0008BF0042F8D0B2F5001F28BF704774
:100E000001F000414FF0000070479EEA445F07D0B8
:100E100011EA5E0FBDE8104004BF002100207047BA
:100E2000BDE8104070B5FFF7C7FE00BF40DFF63EDB
:100E3000104683F0004170470000E0FFF1EE100A19
:100E40004FF6FF71C0F2C03120EA010040F040705F
:100E5000E1EE100A70470000780E00080000002044
:100E600008000000D4010008800E000808000020DF
:100E700068060000F00100080024F40000000000F3
:040000050800019955
:00000001FF
