:020000040800F2
:100000008006002041020008490200084B02000857
:100010004D0200084F0200085102000800000000D5
:100020000000000000000000000000005302000873
:100030005502000800000000570200088D0A000861
:100040005B0200085B0200085B0200085B0200081C
:100050005B0200085B0200085B0200085B0200080C
:100060005B0200085B0200085B0200085B020008FC
:100070005B0200085B0200085B0200085B020008EC
:100080005B0200085B0200082D050008000000006C
:100090000000000000000000000000005B020008FB
:1000A0005B0200085B0200085B0200085B020008BC
:1000B0005B0200085B0200085B0200085B020008AC
:1000C0005B0200085B0200085B0200085B0200089C
:1000D0005B0200085B0200085B02000800000000F1
:1000E0005B0200085B0200085B02000800000000E1
:1000F0000000000000000000000000005B0200089B
:10010000000000005B0200085B0200085B020008C0
:1001100000000000000000000000000000000000DF
:100120005B0200085B0200085B0200085B0200083B
:100130005B0200080000000000000000000000005A
:100140000000000000000000000000005B0200084A
:100150005B0200085B0200085B0200085B0200080B
:100160005B0200085B0200080000000000000000C5
:10017000000000000000000000000000000000007F
:10018000000000005B02000800000000000000000A
:100190005B0200085B02000800F002F800F041F882
:1001A0000AA090E8000C82448344AAF10107DA45D2
:1001B00001D100F036F8AFF2090EBAE80F0013F0E3
:1001C000010F18BFFB1A43F001031847780D000018
:1001D000980D0000103A24BF78C878C1FAD85207A9
:1001E00024BF30C830C144BF04680C6070470000B1
:1001F0000023002400250026103A28BF78C1FBD830
:10020000520728BF30C148BF0B607047642900F017
:100210007780002070471FB500F087FE1FBD10B526
:1002200010BD00F049F91146FFF7F5FF00F0FCFDA5
:1002300000F067F903B4FFF7F2FF03BC00F06EF9BA
:100240000948804709480047FEE7FEE7FEE7FEE76A
:10025000FEE7FEE7FEE7FEE7FEE7FEE704480549A6
:10026000054A064B70470000FD0A00089901000886
:1002700080000020800600208002002080020020F4
:100280000FB4044910B503AA029800F0E7F810BCB7
:100290005DF814FB6C0000202DE9F0410E46044689
:1002A000002020622046E168884730B3252805D029
:1002B000D4E901219047206A401CF2E7E16820461A
:1002C00000278847050018D0A5F14100192802D859
:1002D00020354FF400673246294620462760FFF755
:1002E00095FF40B1012804D0F61D26F00706083618
:1002F000D8E7361DD6E72846DAE7206ABDE8F08160
:100300002DE9F0410646002410687529314616A5EE
:1003100010D0AFF30080002802DA404213A507E0B6
:1003200031688A0701D512A502E0490704D511A555
:10033000012401E0AFF3008000210A2206F1240726
:1003400009E0B0FBF2FCB0FBF2F302FB1C00303022
:1003500078541846491C0028F3D123462A463046D3
:10036000BDE8F04100F021B8000000002D000000C1
:100370002B0000002000000010B5044603E000F050
:1003800031FD401C09D014F8010B05490028F6D1B5
:10039000BDE810400A2000F025BD4FF0FF3010BD31
:1003A0006C0000207047704770472DE9F0470D46FC
:1003B00099469246044600F124080168880604D54F
:1003C000E06921F01001216000E00120A84201DD78
:1003D000471B00E00027A1697A1902EB0900081AFF
:1003E000A0612078C00602D42046AFF3008000262A
:1003F00008E0D4E901211AF806009047206A401C61
:10040000761C20624E45F4DB2078C0060AD52046D3
:10041000AFF3008006E0D4E9012130209047206A44
:10042000401C2062381EA7F10107F4DC07E0D4E984
:10043000012118F805009047206A401C2062281E00
:10044000A5F10105F3DC2046AFF30080207800061B
:1004500002D50220BDE8F0870120FBE7074B70B50D
:100460000D467B4400F011F80446284600F020F8C1
:1004700010B14FF0FF3070BD204670BD7F09000005
:1004800001694A1C02610878704700B58FB0CDE958
:1004900001310021059105497944CDE90310114648
:1004A0006846FFF7F9FE0FB000BD0000E5FFFFFF53
:1004B000007B00F080007047754600F02BF8AE46D8
:1004C00005006946534620F00700854618B020B560
:1004D000FFF7C4FEBDE820404FF000064FF00007D4
:1004E0004FF000084FF0000BAC46ACE8C009ACE898
:1004F000C009ACE8C009ACE8C00921F007018D468D
:10050000704710B50446AFF300802046BDE81040A8
:10051000FFF790BE004870470800002001491820EE
:10052000ABBEFEE7260002007047000010B500F0E9
:1005300073FC002818BF00F03FFC00F065FC0028A9
:1005400008BF10BD40F27004C2F20004206830B948
:1005500000F022F940F27401C2F200010860206844
:10056000012806D100F018F940F27801C2F200012A
:1005700008602068B0FA80F04009206010BD0000DB
:100580002DE9F041054642F2080740F20040C4F26E
:100590000107C4F200004FF00074854208BF4FF01D
:1005A00000643868B5F1804F20F002003860386888
:1005B00008BF4FF0C06440F4806038602846904621
:1005C0000E4600F0A9FA2868314620F001002860A4
:1005D000284600F035FB6868B8F1020F20F03000C3
:1005E0006860686840F040006860A86920F07000AA
:1005F000A861A86940F06000A861286A40F0010085
:100600002862E86A4FEA50006863286840F00100F9
:100610002860386820F070603860386840EA04006C
:100620003860386820F04050386088BFBDE8F081FD
:10063000386808F1010140EA01703860BDE8F081D6
:100640002DE9F04142F2040490460E460746C4F2FA
:10065000010400F061F8054638463146032200F0F7
:1006600013F938463146002200F066F943F644009B
:10067000C4F202000168092D41F480710160D4F8D0
:10068000000320F44030C4F80003206820F04070DC
:100690002060E06820F03800E06004DCE06840F0B2
:1006A0002000E06003E0A06840F02000A0606068E7
:1006B00005F01F0120F002006060206840F48070A7
:1006C0002060606820F400606060A06A20F4700020
:1006D000A062206B20F01F002063206B0843206382
:1006E000206820F020002060206840F0200020607A
:1006F00000F04AFB00F038FBB8F1010F18BFBDE86D
:10070000F08140F20040C4F2000001210022FFF716
:1007100037FFBDE8F081000040F60002C4F202029B
:10072000904214D040F20042C4F20202904214D02F
:100730000022C4F20202904218BF7047082905D275
:10074000C8B2F32222FA00F0C00710D1FEE7062952
:1007500002D201F10A007047FEE7002904BF082019
:100760007047012904BF0920704700BFFEE702A0BF
:1007700050F82100704700BF000000000100000099
:100780000000000000000000040000000500000060
:10079000060000000700000042F24C00C4F2010015
:1007A0000068704770B542F22C0EC4F2010EDEF8FC
:1007B0000020022822F47002CEF8002040F200024D
:1007C000CFF6F072DEF8003002EB005242EA03028C
:1007D000CEF8002005D35EF8282C42F480724EF843
:1007E000282C002808BF70BD00234FF01F0C0022EA
:1007F00014E000BFDEF808400CFA03F5AC43CEF875
:10080000084051F82240DEF808509C402C43CEF8B6
:1008100008400132904203F105032AD0052AE9D9A4
:100820000B2A13D8A3F11E04DEF804500CFA04F6C8
:10083000B543CEF8045051F82250DEF8046005FAB2
:1008400004F43443CEF80440E3E700BFA3F13C04D2
:10085000DEF800500CFA04F6B543CEF8005051F81B
:100860002250DEF8006005FA04F43443CEF800406C
:10087000CFE770BD816841F001018160816841F07E
:10088000804181607047000070B5054600F13E4030
:1008900000F1FF704FEAB020144603280E4632D80C
:1008A000DFE800F00216242F00F058F840F6004070
:1008B000C4F20200854224D040F60000C4F20200D7
:1008C000854213D040F20040C4F2020085421AD1A2
:1008D00000F04EF840F60040C4F20200854210D00D
:1008E00040F60000C4F2020085420CD100F04AF844
:1008F00040F60040C4F20200854208BF00F04CF808
:1009000001E000F049F828463146224600F002F89E
:1009100070BD000080B549004FF0030CD0F800E036
:100920000CFA01F32EEA03030360036802FA01F1F3
:100930001943016080BD000080B549004FF0030CF1
:10094000D0F80CE00CFA01F32EEA0303C360C3688D
:1009500002FA01F11943C16080BD000043F6300086
:10096000C4F20200016841F001010160704700001B
:1009700043F63000C4F20200016841F00201016058
:100980007047000043F63000C4F20200016841F0F5
:10099000040101607047000043F63000C4F2020019
:1009A000016841F0080101607047000043F608004B
:1009B000C4F20200D0F8F81321F00F01C0F8F813C8
:1009C000D0F8F81341F00201C0F8F81350F8081CF1
:1009D00041F0010140F8081C50F8081C8907FBD5BC
:1009E00050F8081C542221F0807140F8081C50F87F
:1009F000041C21F4800140F8041C50F8041C40F849
:100A0000041C50F8041C62F38E1140F8041C50F8CA
:100A1000041C082262F3050140F8041C50F8041C71
:100A200021F4403140F8041C50F8081C41F080715A
:100A300040F8081C50F8081C8901FBD4016821F01B
:100A400003010160016841F002010160016801F0E9
:100A50000C010829FAD1016821F0F0010160016858
:100A600021F4E0510160016841F4805101600168A6
:100A700021F46041016040F200004BF60051C2F2E7
:100A80000000C0F2015101607047000040F26800B0
:100A9000C2F200000168002908BF704701680139EF
:100AA000016070474EF21000CEF20000016821F0A4
:100AB00001010160704700004EF21000CEF200000C
:100AC000016841F0010101607047000010B5FFF7B7
:100AD000E9FF4EF21004CEF200045320606000F0F3
:100AE0005BF90020A060206840F0040020602068CE
:100AF00040F002002060FFF7DFFF10BD4EF6885087
:100B0000CEF20000016841F4700101604FF0006115
:100B100040F8801C7047000010B504464FF6FF7087
:100B2000C4F20000844217DC40F2FF70C4F20000FF
:100B300084422BDCB4F1804F52D040F20040C4F22A
:100B4000000084426FD143F64000C4F20200026804
:100B500042F00202026066E044F2FF30C4F201009B
:100B6000844228DC0020C4F20100844241D044F2D7
:100B70000000C4F20100844255D143F64000C4F2A3
:100B80000200426842F4803242604CE040F60000CD
:100B9000C4F20000844235D040F60040C4F20000A8
:100BA000844240D143F64000C4F20200026842F0A1
:100BB0000802026037E044F20040C4F201008442BF
:100BC00029D044F60000C4F2010084422BD143F640
:100BD0004000C4F20200426842F48022426022E0F7
:100BE00043F64000C4F20200026842F001020260D3
:100BF00019E043F64000C4F20200426842F00102EC
:100C0000426010E043F64000C4F20200026842F085
:100C10000402026007E043F64000C4F202004268AA
:100C200042F400324260204600F00AF8206820F0CA
:100C300010002060206840F00100206010BD00001E
:100C400043F60802C4F20202136803F00303022B06
:100C500002D142F2CF0206E0126892074FF0FF3253
:100C600008BF40F23F6201EB8101490082624FF010
:100C7000FF3212FA81F1C1627047000080B543F67D
:100C80003000C4F20200016941F2171241F4003150
:100C90000161016841F0010101600020C4F202001D
:100CA000016821F0F0010160016841F0A0010160DC
:100CB000016A41F4EE410162816841F0F001816016
:100CC000C16821F0F001C160C16841F05001C1600C
:100CD000416821F00C01416044F20C40C4F2000074
:100CE000016821F400510160016821F48051016024
:100CF000016821F480610160416821F44051416044
:100D0000016821F40041016050F8041C114340F8CF
:100D1000041C016841F00C010160816841F0C001D0
:100D20008160016841F020010160016841F40051D7
:100D3000016000F039F800F01FF880BD62B14FF09B
:100D4000000C00BF03681B06FCD511F80C300CF139
:100D5000010C94454360F5D101684906FCD5016852
:100D600021F04001016070474EF20010CEF2000009
:100D70004FF48021016070474EF20410CEF2000063
:100D800040210160704700004EF21240CEF2000098
:100D900020210170704700004EF62350CEF2000073
:100DA00000210170704700004EF22640CEF2000094
:100DB000102101707047000042F20000C4F20100EF
:100DC000016821F020010160704700004FF47A7142
:100DD000414340F26800C2F200000160016800294E
:100DE000FCD1704710B582B004468DF8070044F27C
:100DF0000040C4F200000DF107010122FFF79EFF41
:100E0000204602B010BD000042F20000C4F2010012
:100E10000068C0F34000704742F20000C4F20100D5
:100E20000068C0F34010704700F056F842F200002E
:100E3000C4F20100FFF71EFD40F2740640F278078D
:100E400040F20404C2F200060FF2540AC2F2000794
:100E500017A5C2F200040FF268080FF2700903E050
:100E60004FF47A70FFF7B2FF31685046FFF708FA87
:100E700039682846FFF704FA386821683268084460
:100E8000824202D94046FFF777FA306821683A6813
:100E900008448242E4D94846FFF76EFAE0E700BF13
:100EA0000D0A4C65667420203D2025640D0A000063
:100EB0005269676874203D2025640D0A0000000017
:100EC0000D0A476F2052696768740D000D0A476F5D
:100ED000204C6566740D000010B582B0FFF766FD0A
:100EE000FFF7CCFE0120FFF7F1FD40F20044C4F211
:100EF0000204204600210122FFF7A2FB2046012127
:100F00000122FFF79DFB42F20430C4F201000168A8
:100F100041F44031016009200190082000906946A9
:100F20000220FFF73FFC02B010BDF1EE100A4FF6B1
:100F3000FF71C0F2C03120EA010040F04070E1EEE4
:100F4000100A7047680F0008000000200800000029
:100F5000D4010008700F0008080000207806000087
:100F6000F0010008000000000024F400DC0500008F
:040000050800019955
:00000001FF
