:020000040800F2
:100000006806002039020008410200084302000887
:1000100045020008470200084902000800000000ED
:100020000000000000000000000000004B0200087B
:100030004D020008000000004F02000851020008B5
:10004000530200085302000853020008530200083C
:10005000530200085302000853020008530200082C
:10006000530200085302000853020008530200081C
:10007000530200085302000853020008530200080C
:100080005302000853020008530200080000000059
:100090000000000000000000000000005302000803
:1000A00053020008530200085302000853020008DC
:1000B00053020008530200085302000853020008CC
:1000C00053020008530200085302000853020008BC
:1000D0005302000853020008530200080000000009
:1000E000F502000853020008530200080000000057
:1000F00000000000000000000000000053020008A3
:1001000000000000530200085302000853020008D8
:1001100000000000000000000000000000000000DF
:10012000530200085302000853020008530200085B
:100130005302000800000000000000000000000062
:100140000000000000000000000000005302000852
:10015000530200085302000853020008530200082B
:1001600053020008530200080000000000000000D5
:10017000000000000000000000000000000000007F
:100180000000000053020008000000000000000012
:10019000530200085302000800F002F800F03CF897
:1001A0000AA090E8000C82448344AAF10107DA45D2
:1001B00001D100F031F8AFF2090EBAE80F0013F0E8
:1001C000010F18BFFB1A43F0010318477C0400001D
:1001D0009C040000103A24BF78C878C1FAD85207AE
:1001E00024BF30C830C144BF04680C6070470000B1
:1001F0000023002400250026103A28BF78C1FBD830
:10020000520728BF30C148BF0B6070471FB500F0D0
:100210000DFA1FBD10B510BD00F031F81146FFF703
:10022000F5FF00F0C1F900F04FF803B4FFF7F2FF5B
:1002300003BC00F057F80000094880470948004710
:10024000FEE7FEE7FEE7FEE7FEE7FEE7FEE7FEE786
:10025000FEE7FEE704480549054A064B70470000E3
:100260006D0500089901000868000020680600205C
:10027000680200206802002070477047704775468A
:1002800000F02CF8AE4605006946534620F0070002
:10029000854618B020B5FFF7DDFFBDE820404FF0E0
:1002A00000064FF000074FF000084FF0000BAC467F
:1002B000ACE8C009ACE8C009ACE8C009ACE8C009CA
:1002C00021F007018D46704710B50446AFF300805A
:1002D0002046BDE81040FFF7A8BF00000048704767
:1002E0000800002001491820ABBEFEE726000200EE
:1002F0007047000010B543F61444C4F201042068AE
:10030000800458BF10BD00F06FF8206840F4005022
:10031000206010BD70B5054600F13E4000F1FF7051
:100320004FEAB020144603280E4632D8DFE800F02A
:100330000216242F00F060F840F60040C4F20200DC
:10034000854224D040F60000C4F20200854213D05A
:1003500040F20040C4F2020085421AD100F058F881
:1003600040F60040C4F20200854210D040F6000082
:10037000C4F2020085420CD100F056F840F600406D
:10038000C4F20200854208BF00F05AF801E000F014
:1003900057F828463146224600F002F870BD0000AA
:1003A00080B549004FF0030CD0F800E00CFA01F3DF
:1003B0002EEA03030360036802FA01F119430160A6
:1003C00080BD000080B549004FF0030CD0F80CE070
:1003D0000CFA01F32EEA0303C360C36802FA01F1C9
:1003E0001943C16080BD00001420C4F202000168FE
:1003F00081F020010160704780B500F02DF843F6D0
:100400003000C4F20200016841F00101016080BDCA
:1004100080B500F021F843F63000C4F20200016814
:1004200041F00201016080BD80B500F015F843F68F
:100430003000C4F20200016841F00401016080BD97
:1004400080B500F009F843F63000C4F202000168FC
:1004500041F00801016080BD43F60800C4F20200CB
:1004600050F8081C41F0010140F8081C50F8081C25
:100470008907FBD5016821F0030101600168016073
:10048000016811F00C0FFBD17047000043F6080023
:10049000C4F20200D0F8F81321F00F01C0F8F813ED
:1004A000D0F8F81341F00201C0F8F81350F8081C16
:1004B00041F0010140F8081C50F8081C8907FBD5E1
:1004C00050F8081C542221F0807140F8081C50F8A4
:1004D000041C21F4800140F8041C50F8041C40F86E
:1004E000041C50F8041C62F38E1140F8041C50F8F0
:1004F000041C082262F3050140F8041C50F8041C97
:1005000021F4403140F8041C50F8081C41F080717F
:1005100040F8081C50F8081C8901FBD4016821F040
:1005200003010160016841F002010160016801F00E
:100530000C010829FAD1016821F0F001016001687D
:1005400021F4E0510160016841F4805101600168CB
:1005500021F46041016040F200004BF60051C2F20C
:100560000000C0F201510160704700004EF6885053
:10057000CEF20000016841F4700101604FF00061AB
:1005800040F8801C704700004EF20410CEF20000CC
:100590004FF48071016070474EF22840CEF20000A7
:1005A000002101707047000000F028F843F6440075
:1005B000C4F20200016841F48041016043F6140076
:1005C000C4F20100016821F0F0010160016841F00E
:1005D00020010160D0F8F81341F40051C0F8F8137D
:1005E000D0F8EC1341F40051C0F8EC13FFF7D4FF3E
:1005F000FFF7CAFFFFF77EFEFEE7000010B5FFF72A
:1006000045FF40F60004C4F20204A4F50060052191
:100610000122FFF77FFE20460D210022FFF77AFE20
:1006200020460D210222FFF7CDFE10BDF1EE100A8B
:100630004FF6FF71C0F2C03120EA010040F0407077
:10064000E1EE100A70470000680600080000002074
:1006500008000000D401000870060008080000200F
:1006600060060000F00100080024F4000000000013
:040000050800019955
:00000001FF
