:020000040800F2
:100000007806002051020008590200085B0200082F
:100010005D0200085F0200086102000800000000A5
:100020000000000000000000000000006302000863
:10003000650200080000000067020008590D000872
:100040006B0200086B0200086B0200086B020008DC
:100050006B0200086B0200086B0200086B020008CC
:100060006B0200086B0200086B0200086B020008BC
:100070006B0200086B0200086B0200086B020008AC
:100080006B0200086B0200081D0B00080000000056
:100090000000000000000000000000006B020008EB
:1000A0006B0200086B0200086B0200086B0200087C
:1000B0006B0200086B0200086B0200086B0200086C
:1000C0006B0200086B0200086B0200086B0200085C
:1000D0006B0200086B0200086B02000800000000C1
:1000E0006B0200086B0200086B02000800000000B1
:1000F0000000000000000000000000006B0200088B
:10010000000000006B0200086B0200086B02000890
:1001100000000000000000000000000000000000DF
:100120006B0200086B0200086B0200086B020008FB
:100130006B0200080000000000000000000000004A
:100140000000000000000000000000006B0200083A
:100150006B0200086B0200086B0200086B020008CB
:100160006B0200086B0200080000000000000000A5
:10017000000000000000000000000000000000007F
:10018000000000006B0200080000000000000000FA
:100190006B0200086B02000800F002F800F049F85A
:1001A0000AA090E8000C82448344AAF10107DA45D2
:1001B00001D100F03EF8AFF2090EBAE80F0013F0DB
:1001C000010F18BFFB1A43F001031847941C0000ED
:1001D000B41C0000103A24BF78C878C1FAD852077E
:1001E00024BF30C830C144BF04680C6070470000B1
:1001F0000023002400250026103A28BF78C1FBD830
:10020000520728BF30C148BF0B607047662901F014
:10021000DA85002070471FB501F0C8FD00F0EEFA46
:1002200004000020002101F03FFBE0601FBD10B57D
:1002300010BD00F0FFFB1146FFF7EDFF00F094FE4C
:1002400000F01DFC03B4FFF7F2FF03BC00F05EFCFE
:100250000948804709480047FEE7FEE7FEE7FEE75A
:10026000FEE7FEE7FEE7FEE7FEE7FEE70448054996
:10027000054A064B70470000C90D000899010008A7
:100280007800002078060020780200207802002004
:100290000FB4044910B503AA029800F09DFA10BCEF
:1002A0005DF814FB6C0000202DE9F0474FF0000AC8
:1002B00089460446C0F820A02046E1688847002807
:1002C00076D0252806D0D4E901219047206A401C29
:1002D0002062F1E7E168204600258847C4F81CA0A9
:1002E00006460027C4F818A02A2E09D0304601F08F
:1002F000D3FA38B304EB8708303EC8F8186019E029
:1003000059F8041B204604EB87029161E168884795
:10031000012F064618D1E069002820DA25F02005D3
:100320001DE0D8F8180000EB800006EB40003038E4
:10033000C8F818002046E1688847064601F0ACFA84
:100340000028EED1012F0AD02E2E08D12046E168D8
:1003500088477F1C0646022F45F02005C4DBA069B4
:10036000002803DA404245F00105A061E80701D00A
:1003700025F01005B6B1A6F14100192802D82036A3
:1003800045F400654A463146204625604D46FFF754
:100390003DFF58B1012806D0ED1D25F0070000F102
:1003A000080989E704E005F1040985E730468AE792
:1003B000206ABDE8F0877047704770472DE9FF4F0E
:1003C0000C461E464FF0FF378BB0D2E90001DDF836
:1003D00060800A908A46C1F30A5505B93D4600215E
:1003E00008464FF00000BAF1000F00F4400005DAB3
:1003F00000EB80004FF4400101EA50004FEA9059B1
:10040000B9F1010F00DDB9460A9850EA4A000ED052
:1004100044F61050A5F2FF3545432F14B8F1000FF4
:100420001ED07542291E1EDDC9F100021CE0B8F184
:10043000010F4FF0000001D0302103E0F24305E04E
:100440002154401CB042FBDB3046002200212154E5
:100450000B99C1F80880C1E900200FB0BDE8F08F0A
:10046000BD1B6D1CDEE74A4600DA694206A800F0B3
:1004700067FA06AB93E8070003AB83E80700504632
:100480000A9900F029FE8DE80700A0F500501F38FA
:1004900000900398002D0ADD42F21F014A460844ED
:1004A000002303A90390684601F092F809E0A0F543
:1004B00000504A461F38002303A90390684601F004
:1004C0009CF88DE807000004000C03D04FF0FF30CB
:1004D000410800E01046B8F1000F03D0002200925E
:1004E00015461EE0751E05D400F08CF930326255B9
:1004F0006D1EF9D5B3460122084302D000227F1CAD
:1005000004E02078302801D100227F1E002A0997BC
:1005100084D01DE0112D07DA00F074F930326255F5
:100520006D1C50EA0102F5D1084302D00098C8B111
:100530000EE00021681E05E0235C625C63542254D7
:10054000401E491C8142F7DBAB46A81B401E0990A8
:10055000002004F80B000B98099AC0F80880C0E945
:10056000002B7AE711264FF0000857E72DE9F04FEE
:1005700088460446D21D22F0070191B0D1E900015E
:10058000CDE90A0101F070F902460B98C00F01D0C5
:100590002D2007E02068810701D52B2002E02021D3
:1005A00001EAC000032A099001D0072A05DB0346AF
:1005B0004146204600F084F90BE12078800601D501
:1005C000E06900E00620B8F1650F814606D0B8F179
:1005D000660F18D0B8F1670F70D131E00020B9F183
:1005E000110F009001DB112301E009F101030AAAB8
:1005F00001A90CA8FFF7E2FEDDE90C70002609F165
:100600000105834647E001204B4600904FF000472C
:100610000AAA01A90CA8FFF7D1FEDDE90DB00C99DB
:100620005D46002610B909F101000D18B9EB05006F
:1006300003D4C0F1FF3609F10105A5EB09002BE059
:10064000B9F1010F01DA4FF001090020B9F1110FE2
:100650000090484601DD112300E003460AAA01A9E3
:100660000CA8FFF7ABFEDDE90C704D460026834673
:10067000207800070AD4AB4500DA5D4601A8012DB9
:1006800004DD411911F8011C302907D04F4502DA69
:1006900017F1040F04DA012082460FE06D1EEEE729
:1006A000002F02DCED1B3E4403E0781CA84200DD75
:1006B0007D1CB81B00F1010A4FF0004720780007AD
:1006C00003D4AA4501DB4FF0FF3A0021B7F1004FF8
:1006D0000DF143088DF8431024D002202B23002F66
:1006E00001DA7F422D230A21021EA0F1010000DC65
:1006F0005FB197FBF1FC97FBF1F201FB1C7C174605
:100700000CF1300C08F801CDEEE7A8F10100037000
:100710002188090501D5452100E06521A0F10108E6
:1007200000F8011C09980FA9A1EB0807FF1D00B1F3
:100730000120411901EBEA70A1693844081A401EF2
:10074000A0612078C00602D42046AFF3008009984B
:1007500028B1D4E901219047206A401C206220780A
:10076000C00622D52046AFF300801EE0002E04DB39
:10077000B34502DD01A8805D00E03020D4E901210D
:100780009047206A401C2062761CAAF101005FEAB3
:10079000000A0AD100F032F8C0680168405CD4E970
:1007A00001219047206A401C2062281EA5F1010506
:1007B000DCDC07E0D4E9012118F8010B9047206A3E
:1007C000401C2062381EA7F10107F3DC2046AFF37E
:1007D0000080032011B041E6074B70B50D467B4405
:1007E00000F05BF80446284600F01CF910B14FF009
:1007F000FF3070BD204670BD5707000000487047AD
:100800002800002030B5B0F10A0271F100034FEA70
:10081000900E4EEA817EB0EB0E0061EB91014FEA43
:10082000101E4EEA017E10EB0E0041EB11114FEA53
:10083000102E4EEA016E10EB0E0041EB11214FEA33
:10084000104E4EEA014E10EB0E0041EB11414018E4
:1008500041F100014FEAD00040EA41704FEAD10176
:100860004FEA810444EA907410EB800544EB0104E4
:100870006D1944EB0404521BA3414FF0000348BF21
:100880000A3200D530BD401C41F1000130BD0000EE
:1008900001694A1C02610878704700B58FB0CDE944
:1008A00001310021059105497944CDE90310114634
:1008B0006846FFF7F9FC0FB000BD0000E5FFFFFF41
:1008C0002DE9F0411F46044603260168072A01F47A
:1008D000006004DB08B116A505E016A503E008B129
:1008E00015A500E015A521F010002060A069C01E2C
:1008F000A0610FB1401EA0612046AFF300804FB150
:10090000D4E9012138469047206A401C2062C01C6F
:10091000206206E0206AFAE7D4E9012115F8010B0C
:100920009047761EF8D22046AFF30080BDE8F081F4
:100930004E414E006E616E00494E4600696E660083
:100940002DE9F047814616468AB0354878440DC8EF
:100950008DE80D0032487844801C03AC0DC884E853
:100960000D0041F69B300844372190FBF1F290FBDB
:10097000F1F5A5F1800501FB12041B3C02D5644290
:10098000012000E00020DFF898A080460027FA440C
:10099000AAF1BE0A0EE0E0070AD03246684607EB2D
:1009A000470101230AEB810100F027FE8DE80700D3
:1009B00064107F1C002CEED1194F7F44AE3F19E02C
:1009C000E80715D007EB04100DF1180A90E80E00A7
:1009D0008AE80E00C068F04201D1981908903246AA
:1009E000012306A903A800F008FE03AB83E8070073
:1009F0006D10641C002DE3D14FF0010332466946AF
:100A0000B8F1000F03A802D000F0E2FD01E000F011
:100A1000F4FDC9E90001C9F808200AB0BDE8F08773
:100A2000F8140000007B00F0800070470048704719
:100A3000080000207546FFF7F9FFAE46050069463D
:100A4000534620F00700854618B020B5FFF70EFC8E
:100A5000BDE820404FF000064FF000074FF00008BF
:100A60004FF0000BAC46ACE8C009ACE8C009ACE8FC
:100A7000C009ACE8C00921F007018D46704710B5E8
:100A80000446AFF300802046BDE81040FFF7DABB14
:100A900030B44FF0013C50F8042B51F8043BCCFA31
:100AA00052F4D51A20D1FCB950F8042B51F8043B6C
:100AB000CCFA52F4D51A17D1B4B950F8042B51F826
:100AC000043BCCFA52F4D51A0ED16CB950F8042B71
:100AD00051F8043BCCFA52F4D51A05D1002CDAD0E7
:100AE00030BC4FF00000704729BAB1FA81F111F023
:100AF0001801D1F120008440F2D1CA40CB4012F05D
:100B0000FF0213F0FF0330BCD01A704701491820D0
:100B1000ABBEFEE7260002007047000010B542F2AF
:100B20000004C4F20104204600F018FA002808BFAF
:100B300010BD204600F00CF840F27401C2F2000132
:100B4000086040F27000C2F200000121016010BD97
:100B5000C06C704770B5054600F13E4000F1FF7073
:100B60004FEAB020144603280E4632D8DFE800F0E2
:100B70000216242F00F058F840F60040C4F202009C
:100B8000854224D040F60000C4F20200854213D012
:100B900040F20040C4F2020085421AD100F04EF843
:100BA00040F60040C4F20200854210D040F600003A
:100BB000C4F2020085420CD100F04AF840F6004031
:100BC000C4F20200854208BF00F04CF801E000F0DA
:100BD00049F828463146224600F002F870BD000070
:100BE00080B549004FF0030CD0F800E00CFA01F397
:100BF0002EEA03030360036802FA01F1194301605E
:100C000080BD000080B549004FF0030CD0F80CE027
:100C10000CFA01F32EEA0303C360C36802FA01F180
:100C20001943C16080BD000043F63000C4F20200E9
:100C3000016841F0010101607047000043F6300097
:100C4000C4F20200016841F0020101607047000037
:100C500043F63000C4F20200016841F00401016073
:100C60007047000043F63000C4F20200016841F012
:100C7000080101607047000043F60800C4F202005A
:100C8000D0F8F81321F00F01C0F8F813D0F8F813DA
:100C900041F00201C0F8F81350F8081C41F00101BE
:100CA00040F8081C50F8081C8907FBD550F8081CB0
:100CB000542221F0807140F8081C50F8041C21F4E3
:100CC000800140F8041C50F8041C40F8041C50F843
:100CD000041C62F38E1140F8041C50F8041C082216
:100CE00062F3050140F8041C50F8041C21F4403163
:100CF00040F8041C50F8081C41F0807140F8081CB2
:100D000050F8081C8901FBD4016821F0030101603F
:100D1000016841F002010160016801F00C0108293D
:100D2000FAD1016821F0F0010160016821F4E0517D
:100D30000160016841F480510160016821F4604163
:100D4000016040F200004BF60051C2F20000C0F218
:100D5000015101607047000040F26800C2F20000DB
:100D60000168002908BF70470168013901607047B8
:100D70004EF21000CEF20000016821F00101016086
:100D8000704700004EF21000CEF20000016841F002
:100D9000010101607047000010B5FFF7E9FF4EF256
:100DA0001004CEF200045320606000F0A9F8002087
:100DB000A060206840F004002060206840F002003D
:100DC0002060FFF7DFFF10BD4EF68850CEF2000026
:100DD000016841F4700101604FF0006140F8801C2F
:100DE0007047000080B543F63000C4F2020001698C
:100DF00041F2171241F400310161016841F0010133
:100E000001600020C4F20200016821F0F0010160DD
:100E1000016841F0A0010160016A41F4EE41016204
:100E2000816841F0F0018160C16821F0F001C1608A
:100E3000C16841F05001C160416821F00C0141607E
:100E400044F20C40C4F20000016821F4005101603A
:100E5000016821F480510160016821F48061016022
:100E6000416821F440514160016821F40041016072
:100E700050F8041C114340F8041C016841F00C01B7
:100E80000160816841F0C0018160016841F020018A
:100E90000160016841F40051016000F039F800F090
:100EA0001FF880BD62B14FF0000C00BF03681B0645
:100EB000FCD511F80C300CF1010C94454360F5D1D0
:100EC00001684906FCD5016821F0400101607047C6
:100ED0004EF20010CEF200004FF480210160704706
:100EE0004EF20410CEF20000402101607047000075
:100EF0004EF21240CEF20000202101707047000037
:100F00004EF62350CEF20000002101707047000021
:100F10004EF22640CEF20000102101707047000012
:100F20004FF47A71414340F26800C2F20000016060
:100F300001680029FCD1704710B582B004468DF8D5
:100F4000070044F20040C4F200000DF10701012245
:100F5000FFF7A8FF204602B010BD00000068C0F3F4
:100F6000400070470000000000F0A0F80024C4F228
:100F70000204204601210322FFF7ECFD2046012157
:100F800000224FF00009FFF73DFE43F64400C4F293
:100F90000200016842F2040441F480710160C4F26D
:100FA0000104D4F8000320F44030C4F80003D4F85E
:100FB000000340F44030C4F80003206820F0407083
:100FC0002060E06820F03800E060E06840F0200039
:100FD000E060606840F002006060206840F480706B
:100FE0002060606820F400606060A06A20F47000F7
:100FF000A062206B20F01F002063206B40F00100F6
:101000002063206820F020002060206840F020004D
:101010002060FFF76DFFFFF75BFF60689FED1A0B25
:1010200040F001006060606855EC10AB40F080401B
:101030009FED170B606040F2700440F2740BC2F237
:101040000004C2F2000B57EC106B0FF24C0800BF0B
:1010500020680128FCD1DBF8000000F095FD524625
:101060002B4600F0A5FD32463B4600F033FC02461D
:1010700040460B46FFF70CF94FF47A70FFF750FF2C
:10108000C4F80090E4E700BF6666666666660A40DC
:101090000000000000FEAF40766F6C746167652051
:1010A0003D20252E33660D0A0000000010B5FFF725
:1010B000E3FDFFF797FE0024C4F20204204601215D
:1010C0000322FFF747FD204601210022FFF79AFD8A
:1010D0000120FFF761FE10BD5FEA400C08BF91F0F0
:1010E000000F4FEA8C234FEAC12243EA51514FEAE5
:1010F0001C5018BF00F5F0404FEA300018BF41F017
:1011000000415FEA6C5C00F02980BCF1FF3F08BF42
:1011100040F080407047130C06BF12044FF0100CD3
:101120004FF0000C130E04BF12020CF1080C130F49
:1011300004BF12010CF1040C930F04BF92000CF1D8
:10114000020CD30F04BF52000CF1010C11464FF0FA
:101150000002A0F11F00A0EB0C00704711F0004F3F
:1011600008BF704731F000413FF4D5AF0B0C06BF0C
:1011700009044FF0100C4FF0000C0B0E04BF0902D5
:101180000CF1080C0B0F04BF09010CF1040C8B0FC0
:1011900004BF89000CF1020CCB0F04BF49000CF115
:1011A000010CCCF1200322FA03F341EA030102FA15
:1011B0000CF2A0EB0C0000F10100704723F07F4718
:1011C00020F07F4C80EA030000F00040ACEB070306
:1011D00003F57C5303F1FF032DE9804909B44FEA7D
:1011E000144324EA03484FEA154B25EA0B4E0FF24D
:1011F000042606EB13273E7803FB0667C7F50007B6
:1012000007FB06F64FEAD64606F102064FEA5437C8
:1012100007FB066CCCF1005C4FEA1C472CEA074C3C
:101220000CFB06F507FB06F404EB15464FEA961691
:1012300049085FEA320234BF00204FF000404FEA15
:10124000D13706FB07FC4FEA1C4C0CFB0BF7D21BFB
:1012500003FB0CF761EB07010CFB0EF7B0EB07404B
:1012600072EB17420CFB08F734BFA2EB0742B2EB5C
:10127000074261EB17414FEA0C444FEA910706FB26
:1012800007FC4FEA1C4C0CFB0BF7B0EBC74072EBB2
:10129000573203FB0CF734BFA2EBC742B2EBC74295
:1012A00061EB57310CFB0EF7B0EBC70072EB5772D6
:1012B0000CFB08F734BFA2EBC702B2EBC70261EB2D
:1012C00057714FEA816141EA92114FEA826242EA24
:1012D00090124FEA806004EBCC04039F4FEAD137B1
:1012E00006FB07FC4FEA1C4C0CFB0BF7D21B03FB65
:1012F0000CF761EB07010CFB0EF7B0EB074072EB4C
:1013000017420CFB08F734BFA2EB0742B2EB0742CF
:1013100061EB17414FEA8C5504EB9C244FEA91078F
:1013200006FB07FC4FEA1C4C0CFB0BF7B0EBC7406D
:1013300072EB573203FB0CF734BFA2EBC742B2EBA0
:10134000C74261EB57310CFB0EF7B0EBC70072EBF5
:1013500057720CFB08F734BFA2EBC702B2EBC7020F
:1013600061EB57714FEA816141EA92114FEA826263
:1013700042EA90124FEA806015EB4C2544F10004DC
:101380004FEAD13706FB07FC4FEA1C4C0CFB0BF76E
:10139000D21B03FB0CF761EB07010CFB0EF7B0EB64
:1013A000074072EB17420CFB08F734BFA2EB074271
:1013B000B2EB074261EB17414FEA813141EA9241BA
:1013C0004FEA823242EA90424FEA80304FEA0C768E
:1013D00015EB1C1544F1000448EA03434EEA0B48A0
:1013E0004FF0000EB2EB080C71EB030724BF62460E
:1013F00039464EEB0E0E4FF0000B0018524149419A
:101400004BEB0B0BB2EB080C71EB03077BF1000B02
:1014100024BF624639464EEB0E0E4FF0000B00180B
:10142000524149414BEB0B0BB2EB080C71EB03073C
:101430007BF1000B24BF624639464EEB0E0E51EA9B
:10144000020718BF46F0010616EB0E7655F10002B2
:1014500054F1000103D5BDE88901BDE80088BDE86D
:101460008901BDE80048B619524141EB0101A3F1E1
:101470000103704780807F7E7D7C7B7A79787776E8
:1014800076757473727171706F6E6E6D6C6C6B6A61
:101490006A696868676666656464636362616160FF
:1014A000605F5F5E5E5D5D5C5C5B5B5A5A5959587C
:1014B00058575756565555555454535352525251E6
:1014C000515050504F4F4F4E4E4D4D4D4C4C4C4B3C
:1014D0004B4B4A4A4A494949484848474747474683
:1014E00046464545454444444443434343424242BF
:1014F000424141419C46002B30D477002BD04FEA2B
:1015000037071CB503B44FF010004FF01001BAF1CB
:10151000000F06D0BCF1000FDCBF40F0080040F027
:1015200008014FF000000FBCBDE810400BF1010BAB
:10153000BBF1010F08BF5FEA170722BF12F10102DA
:1015400011F101014FF0004143F1000300F00040B0
:1015500043EA00007047F9D35708D0E746EA064649
:101560004FEA164613F1400F1FDD13F1200FDFBFC6
:1015700016430A46002120335B42BED0C3F1200748
:1015800046EA06464FEA164602FA07F746EA070613
:1015900022FA03F2C3F1200701FA07F742EA070231
:1015A00021FA03F14FF00003A7E746EA020646EAF4
:1015B00006464FEA164646EA0106BCBF46EA06461C
:1015C000360C4FF000034FF000024FF0000194E79B
:1015D0002DE9804C70B49A46934691E8380007C8CC
:1015E00031EA400C48BF34EA430C03D5FFF7E6FD6F
:1015F000FFF780FFF0BCBDE8008C2DE9804C70B493
:101600009A46934691E8380007C810F0804F08BF0B
:1016100013F0804F03D100F005F8FFF76BFFF0BC2B
:10162000BDE8008C20F07F4723F07F4C80EA030068
:1016300000F0004007EB0C03A3F57C53A3F1FE037D
:1016400092F0000F00F0B38095F0000F00F077806B
:101650002DE901494FEA114021EA00484FEA1446BA
:1016600024EA064700FB06FC08FB06F607FB08F821
:1016700018EB06484CEB164C00FB07F718EB074835
:101680004CEB17404FEA124B22EA0B4E4FEA15463D
:1016900025EA06470BFB06FC0EFB06F607FB0EFED3
:1016A0001EEB064E4CEB164C0BFB07F71EEB074EE2
:1016B0004CEB174B18EB0B0840F1000018EB0E0B2E
:1016C00058EB000840F100008F1A4FF000014FF076
:1016D00000063CBFC943661B14BFB5EB040C0021D8
:1016E0003CBFC943F61B4FEA174427EA04454FEABB
:1016F0001C472CEA074C04FB076205FB07F70CFBB1
:1017000005F616EB074642EB174204FB0CFC16EB02
:101710000C4642EB1C421BEB060658EB0202414111
:101720004EEA8E0E46EA9E0601D5BDE80189B6193D
:10173000524141EB0101A3F10103BDE801894FEAE8
:10174000144524EA05464FEA114721EA074C05FBF8
:1017500007F406FB07F70CFB06F111EB074144EB1E
:10176000174405FB0CFC11EB0C4144EB1C444FEA05
:10177000124722EA074C05FB07F206FB07F70CFBB2
:1017800006F616EB074642EB174205FB0CFC16EB80
:101790000C4642EB1C456A1854F1000148BF7047E3
:1017A000B619524141EB0101A3F10103704795F0D5
:1017B000000F37D04FEA114221EA02464FEA1447A0
:1017C00024EA074C02FB07F106FB07F70CFB06F4C3
:1017D00014EB074441EB174102FB0CFC14EB0C44E7
:1017E00041EB1C414FEA154725EA074C02FB07F580
:1017F00006FB07F70CFB06F616EB074645EB17450D
:1018000002FB0CFC16EB0C4645EB1C42121951F185
:10181000000148BF7047B619524141EB0101A3F1E5
:10182000010370474FEA144524EA05464FEA114781
:1018300021EA074C05FB07F106FB07F70CFB06F254
:1018400012EB074241EB174105FB0CFC12EB0C427B
:1018500051EB1C414FF0000648BF7047921841EB16
:101860000101A3F10103704703B4019841000098FE
:1018700050EAC12018BF04204A0D18BF40F00100F3
:1018800040F2FF72B2EB515F08BF40F00200012846
:1018900008BF052002B0704730380A2801D2012065
:1018A000704700207047000010B500290AD0087862
:1018B000002807D005487844FFF7EAF8002801D04F
:1018C000002010BD0248784410BD0000CA05000089
:1018D000C20500002DE9C04130B4DFF8A4C23CEAE3
:1018E000111418BF3CEA131400F0ED801CEA111427
:1018F00081EA030544EAD57418BF1CEA131500F009
:10190000C880A4EB050404F17F7404F500344FF0A3
:10191000004545EAC12145EAC32341EA505143EA63
:1019200052534FEAC0204FEAC222994208BF904268
:1019300000F09D804FEA13650FF24416765D4FEA82
:10194000134506FB05F7C7F1807706FB07F74FEA5B
:10195000D737A7FB03687642A7FB06CEC8F58038C9
:1019600038BFA8F1010807FB08E6A6FB028C4FF080
:10197000000EE6FB03CEDCF1000CCEF1004E38BFCA
:10198000AEF1010EA6FB0C584FF00007E6FB0E87E8
:10199000A1FB08C6A0FB07CE16EB0E064FF0000514
:1019A00045F10005E1FB076515F1E04E7EBFA4F5AA
:1019B00080345FEA46066D4116F1800745F1000567
:1019C0004FEA172747EA05674FEA15254FEA0666EB
:1019D000A6F1DE46B6F1805F20D9384605EBC4712A
:1019E00024F0010C01EB0C11BCF1FE6F02D8F0BC2D
:1019F000BDE8008124425CBF01F5801E9EEAC47FE1
:101A000002D4F0BCBDE80081244200F13980A1F18C
:101A1000C041F0BCBDE8004100F0C2B94FEAD0209F
:101A200040EA41504FEAD1214FEAD22242EA4352E2
:101A30004FEAD323A7FB028607FB036605FB02667A
:101A40001EEA0E0F58BFA6EB0056B6EB00564FEA43
:101A5000520E4EEAC37E18EB0E0E56EB530EBCD55B
:101A600018EB02085E417F1C55F10005B5E74FF405
:101A700080154FF000074FF000064FF00008ACE76C
:101A800001F1C04101F000414FF00000F0BCBDE8A1
:101A900000810CEA131511EA0C1F00D00CE013EAC8
:101AA0000C1F00F026804FF0000081EA030101F0D6
:101AB0000041F0BCBDE80081F0BCBDE8004181EA16
:101AC000030100F06DB9F0BCBDE8004170B500F055
:101AD00019F900BF097EFC3E00F007B84FF0000086
:101AE00081EA030101F00041704781EA030100F03F
:101AF00057B9F0BCBDE8004122494FF000007047E3
:101B0000FFFDFBF9F7F5F4F2F0EEEDEBE9E8E6E4C2
:101B1000E3E1E0DEDDDBDAD8D7D5D4D3D1D0CFCD49
:101B2000CCCBCAC8C7C6C5C4C2C1C0BFBEBDBCBB82
:101B3000BAB9B8B7B6B5B4B3B2B1B0AFAEADACAB7D
:101B4000AAA9A8A8A7A6A5A4A3A3A2A1A09F9F9E57
:101B50009D9C9C9B9A999998979796959594939309
:101B6000929191908F8F8E8E8D8C8C8B8B8A8989A0
:101B70008888878786858584848383828281818023
:101B80000000FF070000F87FB0FA80F310FA03F1BD
:101B90000AD0C3F11D0303F580634FEA03524FEAF5
:101BA000415002EBD12170474FF000007047000018
:101BB00070B5DFF848C11CEA111E1EBF1CEA1315E0
:101BC0009EEA0C0F95EA0C0F00F06F8081EA030487
:101BD0004EEAD47EAE4421EA4C1123EA4C1341F480
:101BE000801143F48013AEF17F7EA1FB024CA0FB79
:101BF0000365361955EB0C05A1FB034C4CF10003B2
:101C0000A0FB021C16EB0C06654153F100030942D0
:101C100018BF46F0010613F4007F0BD14FEA0331E1
:101C20004FEA053041EA155140EA165034036FF08F
:101C300003020AE04FEAC3214FEAC52041EA5551A9
:101C400040EA5650F4026FF0020202EB2E4201EB22
:101C5000025585EACE710AD05FEA440C18BF24F021
:101C6000004450F1000041F1000120EAD47040F23C
:101C7000FE7C624500D270BDA84214BF4FF0804484
:101C80004FF04044002E08BF0024BEF1806FA8BF73
:101C9000A1F1C041BDE8704080F2828001F1C041F5
:101CA00001F000414FF0000070470CEA13159EEA66
:101CB0000C0F18BF95EA0C0F06D081EA030E4FF007
:101CC00000000EF0004170BD00F01CF88900013EDC
:101CD00000F007B800F009B84FEA430C5FEA5C5C1B
:101CE00008D081EA030100F05BB84FEA410C5FEADB
:101CF0005C5CF6D102494FF0000070470000FF071E
:101D00000000F87F0EF1020E2EF0030E5EF8046B59
:101D1000364205D4012A43EB030515F5001F12D8FE
:101D2000012841EB010C1CF5001F0CD80ED14FEA25
:101D3000D17C0CEB4C0C0CF1020C15F5001F08BF0C
:101D40004CEBD37C04E04FF0080C01E04FEAD37C6D
:101D50000CEB4C0526FA05F606F00706B6F1040C66
:101D600006D20EEB860CBDE870404CF0010C6047CB
:101D7000DFE80CF0090B02024FF00041A1F5002151
:101D80004FF0000070BD19461046012851EB0104C8
:101D900018BFD4F5001484BF002001F0004170BDCD
:101DA0000808A0F500114FEA31017047F1EE100A62
:101DB0004FF6FF71C0F2C03120EA010040F04070E0
:101DC000E1EE100A7047FEF7D1BB000002400000B0
:101DD000000000A00000000005400000000000C856
:101DE000000000000C4000000000409C00000000CB
:101DF000194000000020BCBE00000000344000007C
:101E0000BFC91B8E00000004B5400000504BCFD06E
:101E10006607E2CF010000006C4100003E8251AA3B
:101E2000DFEEA73401000000D9420000DCB5A0E2DB
:101E30003A301F97FFFFFFFFB4450000FD25A0C803
:101E4000E9A3C14FFFFFFFFFFF3F0000000000803C
:101E500000000000FF3F00000000008000000000C4
:101E6000A01E00080000002008000000D4010008A7
:101E7000A81E00080800002070060000F0010008FD
:101E80001C00000043000000F8FFFFFF0C000000F2
:101E90000E0000000F0000002E00000000000000F7
:081EA0000024F4000000000022
:040000050800019955
:00000001FF
