:020000040800F2
:100000009806002051020008590200085B0200080F
:100010005D0200085F0200086102000800000000A5
:100020000000000000000000000000006302000863
:100030006502000800000000670200085D0C00086F
:100040006B0200086B0200086B0200086B020008DC
:100050006B0200086B0200086B0200086B020008CC
:100060006B0200086B0200086B0200086B020008BC
:100070006B0200086B0200086B0200086B020008AC
:100080006B0200086B0200086B0200080000000011
:100090000000000000000000000000006B020008EB
:1000A0006B0200086B0200086B0200086B0200087C
:1000B000910C00086B0200086B0200086B0200083C
:1000C0006B0200086B0200086B0200086B0200085C
:1000D0006B0200086B0200086B02000800000000C1
:1000E0006B0200086B0200086B02000800000000B1
:1000F0000000000000000000000000006B0200088B
:10010000000000006B0200086B0200086B02000890
:1001100000000000000000000000000000000000DF
:100120006B0200086B0200086B0200086B020008FB
:100130006B0200080000000000000000000000004A
:100140000000000000000000000000006B0200083A
:100150006B0200086B0200086B0200086B020008CB
:100160006B0200086B0200080000000000000000A5
:10017000000000000000000000000000000000007F
:10018000000000006B0200080000000000000000FA
:100190006B0200086B02000800F002F800F049F85A
:1001A0000AA090E8000C82448344AAF10107DA45D2
:1001B00001D100F03EF8AFF2090EBAE80F0013F0DB
:1001C000010F18BFFB1A43F001031847C01E0000BF
:1001D000E01E0000103A24BF78C878C1FAD8520750
:1001E00024BF30C830C144BF04680C6070470000B1
:1001F0000023002400250026103A28BF78C1FBD830
:10020000520728BF30C148BF0B607047662901F014
:10021000F086002070471FB501F0DEFE00F09CFA6A
:1002200004000020002101F069FBE0601FBD10B553
:1002300010BD00F0ADFB1146FFF7EDFF00F0C4FE6E
:1002400000F0CBFB03B4FFF7F2FF03BC00F00EFCA1
:100250000948804709480047FEE7FEE7FEE7FEE75A
:10026000FEE7FEE7FEE7FEE7FEE7FEE70448054996
:10027000054A064B70470000750C000899010008FC
:100280009800002098060020980200209802002084
:100290000FB4044910B503AA029800F04BFA10BC41
:1002A0005DF814FB7C0000202DE9F0410E46044669
:1002B000002020622046E168884730B3252805D019
:1002C000D4E901219047206A401CF2E7E16820460A
:1002D00000278847050018D0A5F14100192802D849
:1002E00020354FF400673246294620462760FFF745
:1002F0008DFF40B1012804D0F61D26F00706083610
:10030000D8E7361DD6E72846DAE7206ABDE8F0814F
:100310007047704770472DE9FF4F0C461E464FF05F
:10032000FF378BB0D2E90001DDF860800A908A4681
:10033000C1F30A5505B93D46002108464FF00000BB
:10034000BAF1000F00F4400005DA00EB80004FF432
:10035000400101EA50004FEA9059B9F1010F00DD68
:10036000B9460A9850EA4A000ED044F61050A5F259
:10037000FF3545432F14B8F1000F1ED07542291EDA
:100380001EDDC9F100021CE0B8F1010F4FF00000C2
:1003900001D0302103E0F24305E02154401CB0427B
:1003A000FBDB30460022002121540B99C1F8088064
:1003B000C1E900200FB0BDE8F08FBD1B6D1CDEE76A
:1003C0004A4600DA694206A800F068FA06AB93E8EC
:1003D000070003AB83E8070050460A9900F0AEFE21
:1003E0008DE80700A0F500501F3800900398002DFD
:1003F0000ADD42F21F014A460844002303A9039084
:10040000684601F017F909E0A0F500504A461F3888
:10041000002303A90390684601F021F98DE8070045
:100420000004000C03D04FF0FF30410800E01046FC
:10043000B8F1000F03D00022009215461EE0751E91
:1004400005D400F08DF9303262556D1EF9D5B346F2
:100450000122084302D000227F1C04E020783028CB
:1004600001D100227F1E002A099784D01DE0112DA2
:1004700007DA00F075F9303262556D1C50EA01025E
:10048000F5D1084302D00098C8B10EE00021681EE3
:1004900005E0235C625C63542254401E491C814287
:1004A000F7DBAB46A81B401E0990002004F80B00A8
:1004B0000B98099AC0F80880C0E9002B7AE711264A
:1004C0004FF0000857E72DE9F04F88460446D21D4B
:1004D00022F0070191B0D1E90001CDE90A0101F054
:1004E000F5F902460B98C00F01D02D2007E02068D7
:1004F000810701D52B2002E0202101EAC000032A58
:10050000099001D0072A05DB03464146204600F04A
:1005100085F90BE12078800601D5E06900E006202E
:10052000B8F1650F814606D0B8F1660F18D0B8F162
:10053000670F70D131E00020B9F1110F009001DB9D
:10054000112301E009F101030AAA01A90CA8FFF790
:10055000E2FEDDE90C70002609F10105834647E063
:1005600001204B4600904FF000470AAA01A90CA8B1
:10057000FFF7D1FEDDE90DB00C995D46002610B9FC
:1005800009F101000D18B9EB050003D4C0F1FF36E5
:1005900009F10105A5EB09002BE0B9F1010F01DA22
:1005A0004FF001090020B9F1110F0090484601DD1C
:1005B000112300E003460AAA01A90CA8FFF7ABFE2D
:1005C000DDE90C704D4600268346207800070AD4EA
:1005D000AB4500DA5D4601A8012D04DD411911F893
:1005E000011C302907D04F4502DA17F1040F04DA55
:1005F000012082460FE06D1EEEE7002F02DCED1BAE
:100600003E4403E0781CA84200DD7D1CB81B00F1CD
:10061000010A4FF000472078000703D4AA4501DB08
:100620004FF0FF3A0021B7F1004F0DF143088DF86C
:10063000431024D002202B23002F01DA7F422D23E8
:100640000A21021EA0F1010000DC5FB197FBF1FC62
:1006500097FBF1F201FB1C7C17460CF1300C08F8FB
:1006600001CDEEE7A8F1010003702188090501D54D
:10067000452100E06521A0F1010800F8011C09985E
:100680000FA9A1EB0807FF1D00B10120411901EBE3
:10069000EA70A1693844081A401EA0612078C0069B
:1006A00002D42046AFF30080099828B1D4E9012193
:1006B0009047206A401C20622078C00622D5204640
:1006C000AFF300801EE0002E04DBB34502DD01A87D
:1006D000805D00E03020D4E901219047206A401C71
:1006E0002062761CAAF101005FEA000A0AD100F03C
:1006F00033F8C0680168405CD4E901219047206A62
:10070000401C2062281EA5F10105DCDC07E0D4E9CD
:10071000012118F8010B9047206A401C2062381E06
:10072000A7F10107F3DC2046AFF30080032011B0EE
:1007300041E60000074B70B50D467B4400F05BF8C6
:100740000446284600F01CF910B14FF0FF3070BD90
:10075000204670BD63080000004870472800002054
:1007600030B5B0F10A0271F100034FEA900E4EEA83
:10077000817EB0EB0E0061EB91014FEA101E4EEA54
:10078000017E10EB0E0041EB11114FEA102E4EEAE4
:10079000016E10EB0E0041EB11214FEA104E4EEAB4
:1007A000014E10EB0E0041EB1141401841F10001E8
:1007B0004FEAD00040EA41704FEAD1014FEA81048C
:1007C00044EA907410EB800544EB01046D1944EB8E
:1007D0000404521BA3414FF0000348BF0A3200D566
:1007E00030BD401C41F1000130BD000001694A1CD0
:1007F00002610878704700B58FB0CDE90131002162
:10080000059105497944CDE9031011466846FFF783
:100810004BFD0FB000BD0000E5FFFFFF2DE9F041EB
:100820001F46044603260168072A01F4006004DB22
:1008300008B116A505E016A503E008B115A500E06E
:1008400015A521F010002060A069C01EA0610FB1A5
:10085000401EA0612046AFF300804FB1D4E90121D2
:1008600038469047206A401C2062C01C206206E087
:10087000206AFAE7D4E9012115F8010B9047761EAA
:10088000F8D22046AFF30080BDE8F0814E414E0023
:100890006E616E00494E4600696E66002DE9F047B4
:1008A000814616468AB0354878440DC88DE80D005B
:1008B00032487844801C03AC0DC884E80D0041F632
:1008C0009B300844372190FBF1F290FBF1F5A5F144
:1008D000800501FB12041B3C02D56442012000E0AC
:1008E0000020DFF898A080460027FA44AAF1BE0A4B
:1008F0000EE0E0070AD03246684607EB47010123C5
:100900000AEB810100F0ABFE8DE8070064107F1C4C
:10091000002CEED1194F7F44AE3F19E0E80715D007
:1009200007EB04100DF1180A90E80E008AE80E009B
:10093000C068F04201D1981908903246012306A9F7
:1009400003A800F08CFE03AB83E807006D10641C65
:10095000002DE3D14FF0010332466946B8F1000F94
:1009600003A802D000F066FE01E000F078FEC9E9BD
:100970000001C9F808200AB0BDE8F087C8170000D8
:10098000007B00F08000704700487047080000209E
:100990007546FFF7F9FFAE4605006946534620F05D
:1009A0000700854618B020B5FFF760FCBDE8204081
:1009B0004FF000064FF000074FF000084FF0000B1B
:1009C000AC46ACE8C009ACE8C009ACE8C009ACE88A
:1009D000C00921F007018D46704710B50446AFF3FA
:1009E00000802046BDE81040FFF72CBC000000004E
:1009F00030B44FF0013C50F8042B51F8043BCCFAD2
:100A000052F4D51A20D1FCB950F8042B51F8043B0C
:100A1000CCFA52F4D51A17D1B4B950F8042B51F8C6
:100A2000043BCCFA52F4D51A0ED16CB950F8042B11
:100A300051F8043BCCFA52F4D51A05D1002CDAD087
:100A400030BC4FF00000704729BAB1FA81F111F0C3
:100A50001801D1F120008440F2D1CA40CB4012F0FD
:100A6000FF0213F0FF0330BCD01A70470149182071
:100A7000ABBEFEE7260002007047000070B50546D9
:100A800000F13E4000F1FF704FEAB0201446032809
:100A90000E4632D8DFE800F00216242F00F046F8A8
:100AA00040F60040C4F20200854224D040F6000027
:100AB000C4F20200854213D040F20040C4F20200AA
:100AC00085421AD100F03CF840F60040C4F2020022
:100AD000854210D040F60000C4F2020085420CD1DD
:100AE00000F038F840F60040C4F20200854208BF2A
:100AF00000F03AF801E000F037F828463146224687
:100B000000F002F870BD000080B549004FF0030C02
:100B1000D0F800E00CFA01F32EEA03030360036847
:100B200002FA01F11943016080BD000043F6300074
:100B3000C4F20200016841F0010101607047000049
:100B400043F63000C4F20200016841F00201016086
:100B50007047000043F63000C4F20200016841F023
:100B6000040101607047000043F63000C4F2020047
:100B7000016841F0080101607047000043F6080079
:100B8000C4F20200D0F8F81321F00F01C0F8F813F6
:100B9000D0F8F81341F00201C0F8F81350F8081C1F
:100BA00041F0010140F8081C50F8081C8907FBD5EA
:100BB00050F8081C542221F0807140F8081C50F8AD
:100BC000041C21F4800140F8041C50F8041C40F877
:100BD000041C50F8041C62F38E1140F8041C50F8F9
:100BE000041C082262F3050140F8041C50F8041CA0
:100BF00021F4403140F8041C50F8081C41F0807189
:100C000040F8081C50F8081C8901FBD4016821F049
:100C100003010160016841F002010160016801F017
:100C20000C010829FAD1016821F0F0010160016886
:100C300021F4E0510160016841F4805101600168D4
:100C400021F46041016040F200004BF60051C2F215
:100C50000000C0F2015101607047000040F27800CE
:100C6000C2F200000168002908BF7047016801391D
:100C7000016070474EF68850CEF20000016841F4E2
:100C8000700101604FF0006140F8801C7047000067
:100C9000B0B51024C4F200042068C0070AD040F2A6
:100CA0008000C2F20000016801310160206820F07C
:100CB000010020602068800758BFB0BD40F2680581
:100CC000C2F2000595ED000B40F27000C2F2000088
:100CD00080ED000B606A01F029F841EC100B40F246
:100CE0009000C2F20000016885ED000B0131016047
:100CF000206820F002002060206820F4007020604E
:100D0000B0BD0000C16841F00101C1607047000042
:100D100010B504464FF6FF70C4F20000844217DCA1
:100D200040F2FF70C4F2000084422BDCB4F1804F2B
:100D300052D040F20040C4F2000084426FD143F62A
:100D40004000C4F20200026842F00202026066E063
:100D500044F2FF30C4F20100844228DC0020C4F2D7
:100D60000100844241D044F20000C4F201008442F8
:100D700055D143F64000C4F20200426842F480328A
:100D800042604CE040F60000C4F20000844235D0DE
:100D900040F60040C4F20000844240D143F64000D7
:100DA000C4F20200026842F00802026037E044F236
:100DB0000040C4F20100844229D044F60000C4F28D
:100DC000010084422BD143F64000C4F20200426885
:100DD00042F48022426022E043F64000C4F2020066
:100DE000026842F00102026019E043F64000C4F2DA
:100DF0000200426842F00102426010E043F6400007
:100E0000C4F20200026842F00402026007E043F606
:100E10004000C4F20200426842F4003242602046C0
:100E200000F00AF8206820F010002060206840F0F0
:100E30000100206010BD000043F60802C4F2020267
:100E4000136803F00303022B02D142F2CF0206E043
:100E5000126892074FF0FF3208BF40F23F6201EB89
:100E60008101490082624FF0FF3212FA81F1C162C2
:100E70007047000080B543F63000C4F202000169FB
:100E800041F2171241F400310161016841F00101A2
:100E900001600020C4F20200016821F0F00101604D
:100EA000016841F0A0010160016A41F4EE41016274
:100EB000816841F0F0018160C16821F0F001C160FA
:100EC000C16841F05001C160416821F00C014160EE
:100ED00044F20C40C4F20000016821F400510160AA
:100EE000016821F480510160016821F48061016092
:100EF000416821F440514160016821F400410160E2
:100F000050F8041C114340F8041C016841F00C0126
:100F10000160816841F0C0018160016841F02001F9
:100F20000160016841F40051016000F031F800F007
:100F30001FF880BD62B14FF0000C00BF03681B06B4
:100F4000FCD511F80C300CF1010C94454360F5D13F
:100F500001684906FCD5016821F040010160704735
:100F60004EF20010CEF200004FF080510160704749
:100F70004EF20410CEF200004021016070470000E4
:100F80004EF21C40CEF2000020210170704700009C
:100F90004EF22640CEF20000102101707047000092
:100FA00010B582B004468DF8070044F20040C4F248
:100FB00000000DF107010122FFF7BCFF204602B03F
:100FC00010BD0000000000001825C4F20005FFF766
:100FD000D5FDFFF74FFF2024C4F20204A4F1200046
:100FE000002102224FF0000BFFF748FD206820F09F
:100FF0000F002060206840F00100206043F64000B0
:10100000C4F20200016805F57A7441F00101016043
:10101000532028614FF6FF7068614FF080400168EF
:1010200021F010010160296821F00301296029687D
:1010300041F001012960296821F0F0012960296847
:1010400041F020012960A96821F00A01A960A9687E
:1010500041F00101A96055F80C1C41F0020145F86E
:101060000C1C55F80C1C41F0010145F80C1C0168E2
:1010700041F00101016020460121FFF749FE2046B1
:101080004FF47A71FFF7D8FE2046FFF73BFEFFF7DB
:1010900077FFFFF765FF9FED240B40F2900640F2CB
:1010A000800740F2700840F2880AC2F20006C2F2DD
:1010B0000007C2F2000855EC104BC2F2000A0FF212
:1010C000700900BF30680128FCD140F26800C2F20C
:1010D000000090ED008B1820C4F2000040693968D0
:1010E0000130484300F022FE02460B4651EC180B3B
:1010F00000F01AFC98ED000B53EC102B00F07EFE74
:1011000022462B4600F0B8FC41EC100B0246484644
:101110000B468AED000BFFF7BBF8C7F800B0C6F826
:1011200000B0CFE700BF00BF0000000000408F40CC
:1011300025665B6D7365635D0D0A00005FEA400C18
:1011400008BF91F0000F4FEA8C234FEAC12243EA17
:1011500051514FEA1C5018BF00F5F0404FEA3000E3
:1011600018BF41F000415FEA6C5C00F02980BCF1DF
:10117000FF3F08BF40F080407047130C06BF1204C9
:101180004FF0100C4FF0000C130E04BF12020CF1C4
:10119000080C130F04BF12010CF1040C930F04BFD1
:1011A00092000CF1020CD30F04BF52000CF1010CA1
:1011B00011464FF00002A0F11F00A0EB0C00704799
:1011C00011F0004F08BF704731F000413FF4D5AF38
:1011D0000B0C06BF09044FF0100C4FF0000C0B0E67
:1011E00004BF09020CF1080C0B0F04BF09010CF13C
:1011F000040C8B0F04BF89000CF1020CCB0F04BF51
:1012000049000CF1010CCCF1200322FA03F341EA6E
:10121000030102FA0CF2A0EB0C0000F10100704790
:1012200023F07F4720F07F4C80EA030000F000406D
:10123000ACEB070303F57C5303F1FF032DE9804971
:1012400009B44FEA144324EA03484FEA154B25EA50
:101250000B4E0FF2042606EB13273E7803FB0667BE
:10126000C7F5000707FB06F64FEAD64606F1020669
:101270004FEA543707FB066CCCF1005C4FEA1C4781
:101280002CEA074C0CFB06F507FB06F404EB1546AD
:101290004FEA961649085FEA320234BF00204FF049
:1012A00000404FEAD13706FB07FC4FEA1C4C0CFB11
:1012B0000BF7D21B03FB0CF761EB07010CFB0EF7DE
:1012C000B0EB074072EB17420CFB08F734BFA2EB00
:1012D0000742B2EB074261EB17414FEA0C444FEA79
:1012E000910706FB07FC4FEA1C4C0CFB0BF7B0EB1D
:1012F000C74072EB573203FB0CF734BFA2EBC74277
:10130000B2EBC74261EB57310CFB0EF7B0EBC700F5
:1013100072EB57720CFB08F734BFA2EBC702B2EBBB
:10132000C70261EB57714FEA816141EA92114FEABE
:10133000826242EA90124FEA806004EBCC04039F81
:101340004FEAD13706FB07FC4FEA1C4C0CFB0BF7AE
:10135000D21B03FB0CF761EB07010CFB0EF7B0EBA4
:10136000074072EB17420CFB08F734BFA2EB0742B1
:10137000B2EB074261EB17414FEA8C5504EB9C241A
:101380004FEA910706FB07FC4FEA1C4C0CFB0BF7DE
:10139000B0EBC74072EB573203FB0CF734BFA2EB44
:1013A000C742B2EBC74261EB57310CFB0EF7B0EB13
:1013B000C70072EB57720CFB08F734BFA2EBC702F1
:1013C000B2EBC70261EB57714FEA816141EA9211BA
:1013D0004FEA826242EA90124FEA806015EB4C2598
:1013E00044F100044FEAD13706FB07FC4FEA1C4CDE
:1013F0000CFB0BF7D21B03FB0CF761EB07010CFB9B
:101400000EF7B0EB074072EB17420CFB08F734BF46
:10141000A2EB0742B2EB074261EB17414FEA813181
:1014200041EA92414FEA823242EA90424FEA8030EA
:101430004FEA0C7615EB1C1544F1000448EA03430F
:101440004EEA0B484FF0000EB2EB080C71EB0307AD
:1014500024BF624639464EEB0E0E4FF0000B0018CB
:10146000524149414BEB0B0BB2EB080C71EB0307FC
:101470007BF1000B24BF624639464EEB0E0E4FF057
:10148000000B0018524149414BEB0B0BB2EB080C1F
:1014900071EB03077BF1000B24BF624639464EEB2C
:1014A0000E0E51EA020718BF46F0010616EB0E7643
:1014B00055F1000254F1000103D5BDE88901BDE8F2
:1014C0000088BDE88901BDE80048B619524141EBEA
:1014D0000101A3F10103704780807F7E7D7C7B7AD0
:1014E0007978777676757473727171706F6E6E6DD0
:1014F0006C6C6B6A6A696868676666656464636376
:1015000062616160605F5F5E5E5D5D5C5C5B5B5AFB
:101510005A59595858575756565555555454535368
:1015200052525251515050504F4F4F4E4E4D4D4DC3
:101530004C4C4C4B4B4B4A4A4A494949484848470E
:10154000474747464646454545444444444343434C
:1015500043424242424141419C46002B30D47700F5
:101560002BD04FEA37071CB503B44FF010004FF0F3
:101570001001BAF1000F06D0BCF1000FDCBF40F043
:10158000080040F008014FF000000FBCBDE810401B
:101590000BF1010BBBF1010F08BF5FEA170722BF78
:1015A00012F1010211F101014FF0004143F100037A
:1015B00000F0004043EA00007047F9D35708D0E735
:1015C00046EA06464FEA164613F1400F1FDD13F1B7
:1015D000200FDFBF16430A46002120335B42BED0F6
:1015E000C3F1200746EA06464FEA164602FA07F715
:1015F00046EA070622FA03F2C3F1200701FA07F7C9
:1016000042EA070221FA03F14FF00003A7E746EA96
:10161000020646EA06464FEA164646EA0106BCBFFF
:1016200046EA0646360C4FF000034FF000024FF03A
:10163000000194E72DE9804C70B49A46934691E8F6
:10164000380007C831EA400C48BF34EA430C03D5E0
:10165000FFF7E6FDFFF780FFF0BCBDE8008C2DE949
:10166000804C70B49A46934691E8380007C810F051
:10167000804F08BF13F0804F03D100F005F8FFF74B
:101680006BFFF0BCBDE8008C20F07F4723F07F4C5F
:1016900080EA030000F0004007EB0C03A3F57C5345
:1016A000A3F1FE0392F0000F00F0B38095F0000F5D
:1016B00000F077802DE901494FEA114021EA004806
:1016C0004FEA144624EA064700FB06FC08FB06F630
:1016D00007FB08F818EB06484CEB164C00FB07F725
:1016E00018EB07484CEB17404FEA124B22EA0B4E1F
:1016F0004FEA154625EA06470BFB06FC0EFB06F6ED
:1017000007FB0EFE1EEB064E4CEB164C0BFB07F7D1
:101710001EEB074E4CEB174B18EB0B0840F100008B
:1017200018EB0E0B58EB000840F100008F1A4FF039
:1017300000014FF000063CBFC943661B14BFB5EB68
:10174000040C00213CBFC943F61B4FEA174427EAAB
:1017500004454FEA1C472CEA074C04FB076205FBD3
:1017600007F70CFB05F616EB074642EB174204FBA6
:101770000CFC16EB0C4642EB1C421BEB060658EB2E
:10178000020241414EEA8E0E46EA9E0601D5BDE8B0
:101790000189B619524141EB0101A3F10103BDE8F2
:1017A00001894FEA144524EA05464FEA114721EA28
:1017B000074C05FB07F406FB07F70CFB06F111EBE2
:1017C000074144EB174405FB0CFC11EB0C4144EBC7
:1017D0001C444FEA124722EA074C05FB07F206FBBE
:1017E00007F70CFB06F616EB074642EB174205FB24
:1017F0000CFC16EB0C4642EB1C456A1854F1000138
:1018000048BF7047B619524141EB0101A3F10103F2
:10181000704795F0000F37D04FEA114221EA024697
:101820004FEA144724EA074C02FB07F106FB07F7CF
:101830000CFB06F414EB074441EB174102FB0CFCD4
:1018400014EB0C4441EB1C414FEA154725EA074CC9
:1018500002FB07F506FB07F70CFB06F616EB07463F
:1018600045EB174502FB0CFC16EB0C4645EB1C4206
:10187000121951F1000148BF7047B619524141EBAE
:101880000101A3F1010370474FEA144524EA05461C
:101890004FEA114721EA074C05FB07F106FB07F762
:1018A0000CFB06F212EB074241EB174105FB0CFC67
:1018B00012EB0C4251EB1C414FF0000648BF704741
:1018C000921841EB0101A3F10103704703B40198A1
:1018D0004100009850EAC12018BF04204A0D18BFEB
:1018E00040F0010040F2FF72B2EB515F08BF40F0E0
:1018F0000200012808BF052002B0704710B500297A
:101900000AD00878002807D005487844FFF770F817
:10191000002801D0002010BD0248784410BD00000E
:10192000A20700009A07000010B591EA030F48BF14
:1019300083F0004300F16A82841A71EB030C05D234
:10194000121943EB0C03001B61EB0C014FEA11541D
:10195000A4EB135CDFF81CE11EEA430F18BF9EEAFC
:10196000445F00F0748021EA045123EA0E0343F43B
:101970008013DCF1200E32D322FA0CFE10EB0E00A5
:1019800023FA0CFE41EB0E01CCF1200E03FA0EFE01
:1019900010EB0E00CCF1200E51F10001B1F5801FCB
:1019A00032D201EB045112FA0EF2BDE8104058BFDA
:1019B0007047401C38BF5FEA420218BF70470028DA
:1019C00014BF20F0010041F100014FEA410313F57B
:1019D000001F38BF7047A1F1C04100F008BA012ACA
:1019E00043EB0302ACF1200CDCF11F0E32BF4FF0D1
:1019F000000E23FA0CF310EB030041EB0451B4EB9F
:101A0000115FD0D0A1EB045101F58011490801EB21
:101A100004515FEA30000ED350F1000038BF12FAD3
:101A20000EFE08D1BDE81040C9E7401C38BF5FEA90
:101A30004202CAD1C3E7BDE810404FEA410313F5A3
:101A4000001F38BF7047A1F1C04100F0D0B99EEA35
:101A5000445F08D011EA5E0FBDE8104004BF01F0FA
:101A6000004100207047BDE8104070B500F071F9EA
:101A700064FBBE3E0000E0FF2DE9C04130B4DFF85A
:101A8000A4C23CEA111418BF3CEA131400F0ED8024
:101A90001CEA111481EA030544EAD57418BF1CEA54
:101AA000131500F0C880A4EB050404F17F7404F55D
:101AB00000344FF0004545EAC12145EAC32341EA1D
:101AC000505143EA52534FEAC0204FEAC222994292
:101AD00008BF904200F09D804FEA13650FF2441654
:101AE000765D4FEA134506FB05F7C7F1807706FBE5
:101AF00007F74FEAD737A7FB03687642A7FB06CE66
:101B0000C8F5803838BFA8F1010807FB08E6A6FB36
:101B1000028C4FF0000EE6FB03CEDCF1000CCEF1A0
:101B2000004E38BFAEF1010EA6FB0C584FF0000777
:101B3000E6FB0E87A1FB08C6A0FB07CE16EB0E0640
:101B40004FF0000545F10005E1FB076515F1E04E9A
:101B50007EBFA4F580345FEA46066D4116F180072A
:101B600045F100054FEA172747EA05674FEA1525B3
:101B70004FEA0666A6F1DE46B6F1805F20D9384608
:101B800005EBC47124F0010C01EB0C11BCF1FE6FEC
:101B900002D8F0BCBDE8008124425CBF01F5801E84
:101BA0009EEAC47F02D4F0BCBDE80081244200F16B
:101BB0003980A1F1C041F0BCBDE8004100F017B987
:101BC0004FEAD02040EA41504FEAD1214FEAD222D9
:101BD00042EA43524FEAD323A7FB028607FB036680
:101BE00005FB02661EEA0E0F58BFA6EB0056B6EBC9
:101BF00000564FEA520E4EEAC37E18EB0E0E56EB1D
:101C0000530EBCD518EB02085E417F1C55F1000550
:101C1000B5E74FF480154FF000074FF000064FF086
:101C20000008ACE701F1C04101F000414FF00000B5
:101C3000F0BCBDE800810CEA131511EA0C1F00D0BE
:101C40000CE013EA0C1F00F026804FF0000081EA40
:101C5000030101F00041F0BCBDE80081F0BCBDE82B
:101C6000004181EA030100F0C2B8F0BCBDE80041C8
:101C700070B500F06EF800BF097EFC3E00F007B8BA
:101C80004FF0000081EA030101F00041704781EA52
:101C9000030100F0ACB8F0BCBDE8004122494FF0B0
:101CA00000007047FFFDFBF9F7F5F4F2F0EEEDEB05
:101CB000E9E8E6E4E3E1E0DEDDDBDAD8D7D5D4D34A
:101CC000D1D0CFCDCCCBCAC8C7C6C5C4C2C1C0BF96
:101CD000BEBDBCBBBAB9B8B7B6B5B4B3B2B1B0AF9C
:101CE000AEADACABAAA9A8A8A7A6A5A4A3A3A2A180
:101CF000A09F9F9E9D9C9C9B9A999998979796953B
:101D000095949393929191908F8F8E8E8D8C8C8BD6
:101D10008B8A89898888878786858584848383825E
:101D2000828181800000FF070000F87FB0FA80F315
:101D300010FA03F10AD0C3F11D0303F580634FEAE3
:101D400003524FEA415002EBD12170474FF000009F
:101D500070470EF1020E2EF0030E5EF8046B364251
:101D600005D4012A43EB030515F5001F12D80128FD
:101D700041EB010C1CF5001F0CD80ED14FEAD17CB1
:101D80000CEB4C0C0CF1020C15F5001F08BF4CEBD2
:101D9000D37C04E04FF0080C01E04FEAD37C0CEB5D
:101DA0004C0526FA05F606F00706B6F1040C06D235
:101DB0000EEB860CBDE870404CF0010C6047DFE88C
:101DC0000CF0090B02024FF00041A1F500214FF089
:101DD000000070BD19461046012851EB010418BFE0
:101DE000D4F5001484BF002001F0004170BD080844
:101DF000A0F500114FEA31017047000010B591EADB
:101E0000030F48BF83F000433FF596AD841A71EB92
:101E1000030C07D28CF0004C121943EB0C03001B8F
:101E200061EB0C014FEA1154A4EB135CDFF8A4E161
:101E30001EEA430F18BF9EEA445F00F0B48021EA17
:101E4000045123EA6E035242C3EB6E0338BF5B1E9C
:101E5000DCF1200E25D322FA0CFE10EB0E0043FA23
:101E60000CFE41EB0E01CCF1200E03FA0EFE10EB3E
:101E70000E00CCF1200E51F1000129D401EB0451E8
:101E800012FA0EF2BDE8104058BF7047401C1CBF4C
:101E9000B2F1004F704700280CBF491C20F0010030
:101EA000704712EB020E43EB030218BF4FF0010E16
:101EB0004EEA4202ACF1200CDCF11E0E56D943FA78
:101EC0000CFE10EB0E00CCF11E0E51F1FF31D5D5FA
:101ED0000EF1010E12FA0EFE404141EB010101EB41
:101EE000445C5FEA5C5C10D901EB045110EBDE70DE
:101EF00038BFBEF1004FBDE8104018BF7047002842
:101F00000CBF491C20F00100704734D24FEAD42C9A
:101F100024F4006411F500111BD0B1FA81F20B3AE0
:101F2000A41AA41ED2F12003914030FA03F31943FE
:101F3000904001EBCC7101EB0451002CBDE8104046
:101F4000A8BF704701F1C04101F000414FF000000F
:101F50007047B0FA80F310FA03F102D1BDE81040E7
:101F60007047E41A173C4805C90AE2E701EB04513F
:101F7000BDE81040704749104FEA300001EB0451B2
:101F8000BDE8104002E04FF0000170474A0008BF72
:101F90000042F8D0B2F5001F28BF704701F00041A1
:101FA0004FF0000070479EEA445F07D011EA5E0FD1
:101FB000BDE8104004BF002100207047BDE810407C
:101FC00070B5FFF7C6FE00BF40DFF63E104683F057
:101FD000004170470000E0FFF1EE100A4FF6FF717C
:101FE000C0F2C03120EA010040F04070E1EE100A7A
:101FF0007047FEF768BA000002400000000000A031
:102000000000000005400000000000C800000000C3
:102010000C4000000000409C00000000194000003F
:102020000020BCBE0000000034400000BFC91B8E71
:1020300000000004B5400000504BCFD06607E2CF4F
:10204000010000006C4100003E8251AADFEEA7347F
:1020500001000000D9420000DCB5A0E23A301F9731
:10206000FFFFFFFFB4450000FD25A0C8E9A3C14F55
:10207000FFFFFFFFFF3F00000000008000000000A6
:10208000FF3F00000000008000000000C8200008A2
:102090000000002008000000D4010008D020000843
:1020A0000800002090060000F00100081C0000005D
:1020B00043000000F8FFFFFF0C0000000E000000CE
:1020C0000F0000002E0000000024F40000000000BB
:040000050800019955
:00000001FF
