:020000040800F2
:10000000600600201D0200082502000827020008E3
:10001000290200082B0200082D0200080000000041
:100020000000000000000000000000002F02000897
:100030003102000800000000330200083502000809
:1000400037020008370200083702000837020008AC
:10005000370200083702000837020008370200089C
:10006000370200083702000837020008370200088C
:10007000370200083702000837020008370200087C
:1000800037020008370200083702000800000000AD
:10009000000000000000000000000000370200081F
:1000A000370200083702000837020008370200084C
:1000B000370200083702000837020008370200083C
:1000C000370200083702000837020008370200082C
:1000D000370200083702000837020008000000005D
:1000E000370200083702000837020008000000004D
:1000F00000000000000000000000000037020008BF
:10010000000000003702000837020008370200082C
:1001100000000000000000000000000000000000DF
:1001200037020008370200083702000837020008CB
:10013000370200080000000000000000000000007E
:10014000000000000000000000000000370200086E
:10015000370200083702000837020008370200089B
:10016000370200083702000800000000000000000D
:10017000000000000000000000000000000000007F
:10018000000000003702000800000000000000002E
:10019000370200083702000800F002F800F02EF8DD
:1001A0000AA090E8000C82448344AAF10107DA45D2
:1001B00001D100F023F8AFF2090EBAE80F0013F0F6
:1001C000010F18BFFB1A43F001031847A8060000EF
:1001D000B80600000023002400250026103A28BF9E
:1001E00078C1FBD8520728BF30C148BF0B607047A9
:1001F0001FB500F092FA1FBD10B510BD00F031F828
:100200001146FFF7F5FF00F075F900F04FF803B461
:10021000FFF7F2FF03BC00F057F8000009488047E1
:1002200009480047FEE7FEE7FEE7FEE7FEE7FEE7D8
:10023000FEE7FEE7FEE7FEE704480549054A064BF0
:1002400070470000B1040008990100086000002018
:1002500060060020600200206002002070477047A6
:100260007047754600F02CF8AE46050069465346C7
:1002700020F00700854618B020B5FFF7DDFFBDE888
:1002800020404FF000064FF000074FF000084FF0FD
:10029000000BAC46ACE8C009ACE8C009ACE8C0094A
:1002A000ACE8C00921F007018D46704710B504463F
:1002B000AFF300802046BDE81040FFF7A8BF000064
:1002C000004870470000002001491820ABBEFEE73F
:1002D000260002007047000070B5054600F13E4060
:1002E00000F1FF704FEAB020144603280E4632D8C2
:1002F000DFE800F00216242F00F090F840F60040EE
:10030000C4F20200854224D040F60000C4F202008C
:10031000854213D040F20040C4F2020085421AD157
:1003200000F088F840F60040C4F20200854210D088
:1003300040F60000C4F2020085420CD100F086F8BD
:1003400040F60040C4F20200854208BF00F08AF87F
:1003500001E000F087F828463146224600F002F816
:1003600070BD000080B549004FF0030CD0F800E0EC
:100370000CFA01F32EEA03030360036802FA01F1A9
:100380001943016080BD000080B549004FF0030CA7
:10039000D0F808E00CFA01F32EEA030383608368C7
:1003A00002FA01F11943816080BD000080B54FF071
:1003B000010CD0F804E00CFA01F32EEA03034360C9
:1003C000436802FA01F11943416080BD80B54900DC
:1003D0004FF0030CD0F80CE00CFA01F32EEA030303
:1003E000C360C36802FA01F11943C16080BD000017
:1003F0000069012202FA01F10840704780B54FF010
:10040000010CD0F814E00CFA01F32EEA0303436167
:10041000436902FA01F11943416180BD80B500F0E2
:100420002DF843F63000C4F20200016841F00101EA
:10043000016080BD80B500F021F843F63000C4F2C1
:100440000200016841F00201016080BD80B500F04A
:1004500015F843F63000C4F20200016841F00401CF
:10046000016080BD80B500F009F843F63000C4F2A9
:100470000200016841F00801016080BD43F60800F8
:10048000C4F2020050F8081C41F0010140F8081CB9
:1004900050F8081C8907FBD5016821F003010160B1
:1004A00001680160016811F00C0FFBD1704700007A
:1004B0004EF68850CEF20000016841F470010160F0
:1004C0004FF0006140F8801C7047000010B5FFF746
:1004D000D5FF40F60004C4F2020420460D2100229C
:1004E000FFF7FAFE20460D210122FFF76FFF00F013
:1004F0006BF810BD40F60004C4F20204FFF7E6FFFB
:100500004CF6CD4601200025CCF6CC4609E000BFD4
:1005100020460D21FFF76CFF80B10020092D88BF18
:1005200000250128F4D1A5FB0601C80800EB8000D6
:10053000A5EB400000F00CF8EAE700BF20460D21D3
:10054000FFF756FF0028F9D001350120E6E700004B
:100550002DE9F04140F23471C0F60001420100245F
:100560008A58C4F2020401EB401720460521FFF728
:1005700045FF07F1040898E8640120460621FFF7CB
:100580003DFF204607212A46FFF738FF04F5806526
:10059000284606213246FFF731FF04F500600721A7
:1005A0004246FFF72BFF7A6920460921FFF726FF15
:1005B000BA6920460821FFF721FFFA6928460A2177
:1005C000FFF71CFFBDE8F08170B50024C4F20204FF
:1005D000204605210122FFF77FFE20460621012249
:1005E000FFF77AFE204607210122FFF775FE04F58A
:1005F0008065284606210122FFF76EFE04F500669D
:10060000304607210122FFF767FE2046092101221B
:10061000FFF762FE204608210122FFF75DFE284613
:100620000A210122FFF758FE204605210022FFF78C
:10063000BDFE204606210022FFF7B8FE2046072116
:100640000022FFF7B3FE284606210022FFF7AEFE88
:10065000304607210022FFF7A9FE2046092100228B
:10066000FFF7A4FE204608210022FFF79FFE284640
:100670000A210022FFF79AFE204605210022FFF7FB
:10068000A5FE204606210022FFF7A0FE20460721F6
:100690000022FFF79BFE284606210022FFF796FE68
:1006A000304607210022FFF791FE20460921002253
:1006B000FFF78CFE204608210022FFF787FE284620
:1006C0000A210022FFF782FE204605210222FFF7C1
:1006D0005BFE204606210222FFF756FE2046072138
:1006E0000222FFF751FE284606210222FFF74CFEA8
:1006F000304607210222FFF747FE20460921022249
:10070000FFF742FE204608210222FFF73DFE284661
:100710000A210222FFF738FE70BDF1EE100A4FF6F3
:10072000FF71C0F2C03120EA010040F04070E1EEFC
:10073000100A7047000000000000000000000000E8
:1007400000000000000000000000000001000000A8
:100750000100000001000000000000000000000097
:100760000100000001000000010000000100000085
:100770000100000000000000000000000100000077
:100780000000000000000000010000000000000068
:100790000100000000000000000000000000000058
:1007A0000000000001000000010000000000000047
:1007B0000100000001000000000000000000000037
:1007C0000100000001000000000000000000000027
:1007D0000100000000000000010000000000000017
:1007E0000000000001000000000000000000000008
:1007F00001000000000000000100000000000000F7
:1008000000000000000000000000000000000000E8
:1008100001000000000000000000000000000000D7
:1008200001000000010000000000000001000000C5
:1008300001000000000000000000000000000000B7
:1008400000000000000000000000000000000000A8
:100850000100000000000000000000000000000097
:100860000000000001000000000000000000000087
:10087000010000008408000800000020600600005D
:04088000D401000897
:040000050800019955
:00000001FF
