:020000040800F2
:10000000800600203902000841020008430200086F
:1000100045020008470200084902000800000000ED
:100020000000000000000000000000004B0200087B
:100030004D020008000000004F0200082D090008D2
:10004000530200085302000853020008530200083C
:10005000530200085302000853020008530200082C
:10006000530200085302000853020008530200081C
:10007000530200085302000853020008530200080C
:100080005302000853020008530200080000000059
:100090000000000000000000000000005302000803
:1000A00053020008530200085302000853020008DC
:1000B00053020008530200085302000853020008CC
:1000C00053020008530200085302000853020008BC
:1000D0005302000853020008530200080000000009
:1000E000F502000853020008530200080000000057
:1000F00000000000000000000000000053020008A3
:1001000000000000530200085302000853020008D8
:1001100000000000000000000000000000000000DF
:10012000530200085302000853020008530200085B
:100130005302000800000000000000000000000062
:100140000000000000000000000000005302000852
:10015000530200085302000853020008530200082B
:1001600053020008530200080000000000000000D5
:10017000000000000000000000000000000000007F
:100180000000000053020008000000000000000012
:10019000530200085302000800F002F800F03CF897
:1001A0000AA090E8000C82448344AAF10107DA45D2
:1001B00001D100F031F8AFF2090EBAE80F0013F0E8
:1001C000010F18BFFB1A43F0010318471C1400006D
:1001D0003C140000103A24BF78C878C1FAD85207FE
:1001E00024BF30C830C144BF04680C6070470000B1
:1001F0000023002400250026103A28BF78C1FBD830
:10020000520728BF30C148BF0B6070471FB501F0CF
:10021000D9F91FBD10B510BD00F031F81146FFF738
:10022000F5FF00F0C9FC00F04FF803B4FFF7F2FF50
:1002300003BC00F057F80000094880470948004710
:10024000FEE7FEE7FEE7FEE7FEE7FEE7FEE7FEE786
:10025000FEE7FEE704480549054A064B70470000E3
:10026000E9090008990100088000002080060020AC
:10027000800200208002002070477047704775465A
:1002800000F02CF8AE4605006946534620F0070002
:10029000854618B020B5FFF7DDFFBDE820404FF0E0
:1002A00000064FF000074FF000084FF0000BAC467F
:1002B000ACE8C009ACE8C009ACE8C009ACE8C009CA
:1002C00021F007018D46704710B50446AFF300805A
:1002D0002046BDE81040FFF7A8BF00000048704767
:1002E0000800002001491820ABBEFEE726000200EE
:1002F0007047000080B50D2000F052FC002808BFB8
:1003000080BD40F26C00C2F2000001680131016062
:100310000D2000F02FFC80BD43F60042C4F2010224
:100320000121136801FA00F01843106070470000C3
:10033000F0B581B01F4616460D4600F085FC43F629
:100340004401C4F202010A6843F6080342F4804201
:100350000A60E91705EB917121F00301C4F2010372
:100360000F22CC588A4024EA0202CA506FF02F02B2
:1003700002EB8502CC5890402043C85043F60C4015
:10038000C4F20100016806FA05F211430160284633
:10039000FFF7C2FF00F0D6FB384600F0DBFB01B0F0
:1003A000F0BD000070B5054600F13E4000F1FF7061
:1003B0004FEAB020144603280E4632D8DFE800F09A
:1003C0000216242F00F01AFA40F60040C4F2020090
:1003D000854224D040F60000C4F20200854213D0CA
:1003E00040F20040C4F2020085421AD100F010FA37
:1003F00040F60040C4F20200854210D040F60000F2
:10040000C4F2020085420CD100F00CFA40F6004024
:10041000C4F20200854208BF00F00EFA01E000F0CD
:100420000BFA28463146224600F002F870BD000063
:1004300080B549004FF0030CD0F800E00CFA01F34E
:100440002EEA03030360036802FA01F11943016015
:1004500080BD000080B549004FF0030CD0F808E0E3
:100460000CFA01F32EEA03038360836802FA01F1B8
:100470001943816080BD000080B54FF0010CD0F8B9
:1004800004E00CFA01F32EEA03034360436802FA26
:1004900001F11943416080BD80B549004FF0030C64
:1004A000D0F80CE00CFA01F32EEA0303C360C36832
:1004B00002FA01F11943C16080BD0000D0E90210C9
:1004C0000138CA6A032888BF7047013201EE102A3A
:1004D000B8EE411A21EE000ADFE800F00211070C25
:1004E000BCEEC00A81ED0D0A7047BCEEC00A81ED7A
:1004F0000F0A7047BCEEC00A81ED100A7047BCEECF
:10050000C00A81ED0E0A70472DE9F04116460D46EE
:100510000746C0E9001200F0EDF8D7E90247284687
:1005200031460222FFF73EFF284631460322FFF7FD
:1005300091FF284631460022FFF7AEFF284631469C
:100540000022FFF799FF4FF6FF70C4F200008442CB
:100550004FF001000BDC40F2FF71C4F200018C424D
:1005600013DCB4F1804F2DD040F2004015E044F28E
:10057000FF31C4F201018C4216DC0021C4F20101FA
:100580008C421FD044F2000016E040F60000C4F296
:100590000000844206D040F60040C4F200008442CD
:1005A00040F09F8002200DE044F60000C4F20100FC
:1005B000844206D044F20040C4F20100844240F07C
:1005C0009080032040F24408C4F20108072E4FEA4D
:1005D000860106DC0F2255F8203F8A4023EA0202FA
:1005E00009E0A1F108020F2355F8246F03FA02F283
:1005F00026EA020220392A602A68884010432860CF
:1006000020460121A8F1440600F0FCF92068791E7B
:1006100020F010002060E06A032954D84008DFE889
:1006200001F002142639A16904F1340221F07001AD
:10063000A161A1696FF0020341F06001A161A169AC
:1006400041F00801A161012136E0A16904F13802FD
:1006500021F4E041A161A1696FF0200341F4C041A0
:10066000A161A16941F40061A161102124E0E16967
:1006700004F13C0221F07001E161E1696FF4007363
:1006800041F06001E161E16941F00801E1614FF48D
:10069000807111E0E16904F1400221F4E041E1617F
:1006A000E1696FF4005341F06001E161E16941F4F7
:1006B0000061E1614FF480511060206A18402062AF
:1006C000206A08432062B44205D1D8F8000040F403
:1006D0000040C8F80000206840F001002060BDE83C
:1006E000F08100206EE7000080B5806800F01EFAFF
:1006F00080BD0000D0E9002140F60003C4F20203EF
:100700009A4219D040F20043C4F202039A4220D028
:100710000023C4F202039A423CD10F293AD8DFE801
:1007200001F0083A3939390828393D444B3939390B
:1007300039084FF080414CE00639032988BF7047E3
:10074000DFE801F0171C022140F20041C4F2000171
:100750004FE0033907291DD8DFE801F01D0B1035E4
:100760003F04044940F20041C4F2000101F58061F8
:100770003FE040F20041C4F200012AE040F20041B3
:10078000C4F200012FE040F20041C4F20001042253
:10079000C0E9021270474FF0804124E040F200416E
:1007A000C4F2000101F57C4113E040F20041C4F2C3
:1007B000000101F57C4116E040F20041C4F2000165
:1007C00001F57C4115E040F20041C4F2000101F561
:1007D00080610122C0E90212704740F20041C4F278
:1007E000000101F580610222C0E9021270474FF05A
:1007F00080410322C0E902127047000043F6300036
:10080000C4F20200016841F001010160704700007C
:1008100043F63000C4F20200016841F002010160B9
:100820007047000043F63000C4F20200016841F056
:10083000040101607047000043F63000C4F202007A
:10084000016841F0080101607047000043F60800AC
:10085000C4F20200D0F8F81321F00F01C0F8F81329
:10086000D0F8F81341F00201C0F8F81350F8081C52
:1008700041F0010140F8081C50F8081C8907FBD51D
:1008800050F8081C542221F0807140F8081C50F8E0
:10089000041C21F4800140F8041C50F8041C40F8AA
:1008A000041C50F8041C62F38E1140F8041C50F82C
:1008B000041C082262F3050140F8041C50F8041CD3
:1008C00021F4403140F8041C50F8081C41F08071BC
:1008D00040F8081C50F8081C8901FBD4016821F07D
:1008E00003010160016841F002010160016801F04B
:1008F0000C010829FAD1016821F0F00101600168BA
:1009000021F4E0510160016841F480510160016807
:1009100021F46041016040F200004BF60051C2F248
:100920000000C0F2015101607047000040F2680011
:10093000C2F200000168002908BF70470168013950
:10094000016070474EF21000CEF20000016821F005
:1009500001010160704700004EF21000CEF200006D
:10096000016841F0010101607047000000000000D3
:1009700010B50446FFF7E6FF204600F024FC9FED8B
:10098000140B53EC102B00F031FC9FED130B53ECC8
:10099000102B00F02BFC9FED120B53EC102B00F0F2
:1009A000E3F900F0E3FB4EF21004CEF200046060C5
:1009B00000F0D8F80020A060206840F0040020601B
:1009C000206840F002002060FFF7C6FF10BD00BFA6
:1009D000FCA9F1D24D62503F00000000F4069441A2
:1009E000000000000000F0BF4EF68850CEF200007C
:1009F000016841F4700101604FF0006140F8801C13
:100A00007047000010B504464FF6FF70C4F20000B6
:100A1000844217DC40F2FF70C4F2000084422BDCF9
:100A2000B4F1804F52D040F20040C4F20000844242
:100A30006FD143F64000C4F20200026842F00202A5
:100A4000026066E044F2FF30C4F20100844228DC18
:100A50000020C4F20100844241D044F20000C4F2FC
:100A60000100844255D143F64000C4F202004268BE
:100A700042F4803242604CE040F60000C4F20000D4
:100A8000844235D040F60040C4F20000844240D198
:100A900043F64000C4F20200026842F0080202601D
:100AA00037E044F20040C4F20100844229D044F609
:100AB0000000C4F2010084422BD143F64000C4F28E
:100AC0000200426842F48022426022E043F6400085
:100AD000C4F20200026842F00102026019E043F62B
:100AE0004000C4F20200426842F00102426010E09D
:100AF00043F64000C4F20200026842F004020260C1
:100B000007E043F64000C4F20200426842F40032BB
:100B10004260204600F00AF8206820F010002060B3
:100B2000206840F00100206010BD000001EB810151
:100B300042F2CF02490082624FF0FF3212FA81F195
:100B4000C16270474EF20410CEF200004FF4807183
:100B5000016070474EF228410001CEF2000108709A
:100B6000704700004EF62350CEF2000000210170C5
:100B70007047000043F61442C4F2010201211368D9
:100B800001FA00F0184310607047000040F268015D
:100B9000C2F20001086000BF08680028FCD170475D
:100BA00043F61441C4F20101096821FA00F000F093
:100BB000010070470000000000F062F89FED1C0B80
:100BC0009FED1D1B59EC108B9FED1D0B40F26C0629
:100BD00040F2700A57EC11BBC2F2000655EC104B04
:100BE000C2F2000A306800F0EEFA42464B4600F0CE
:100BF000FDFA5A463B4600F0B7F822462B4600F075
:100C00005BF900F07FF800EE100A5046FFF756FC43
:100C10006420FFF7BBFF30680A28E3D34FF47A70F3
:100C2000FFF7B4FF00203060DCE700BF00BF00BF6B
:100C30009A9999999999C93F000000000000E03FF6
:100C40000000000000003440A0F18040A0F5013019
:100C50004FEAB02006288EBF002002A151F82000E4
:100C6000704700BF01000000020000000300000008
:100C70000400000000000000000000000700000069
:100C800070B5FFF7E3FD01200126FFF771FE002498
:100C9000C4F2020404F5006528460D210022FFF786
:100CA00081FB28460D210122FFF7F6FB28460D2186
:100CB00001220023FFF73CFB204601210222FFF71F
:100CC00071FB204601210022FFF7D6FB20460121BF
:100CD0000022FFF7E1FB204601210222FFF7BAFBC9
:100CE00040F27005C2F2000528466E60FFF702FD73
:100CF000284621460122FFF707FC28461421FFF76A
:100D0000F3FC70BD21F0004201F00043A2F16052FB
:100D1000B2F5801F28BFD2F17F6C0BD95FEA001CAF
:100D200043EAC20242EB507018BF704728BF20F060
:100D300001007047B2F5801FBCBF184670474FEAEC
:100D4000410C1CF5001F02D2084600F048BC70B5EB
:100D500000F0F6FA00000089FFF7F6BF4FF0004000
:100D6000A0F580007047000010B591EA030F48BF5E
:100D700083F0004300F14083841A71EB030C05D229
:100D8000121943EB0C03001B61EB0C014FEA1154E9
:100D9000A4EB135CDFF81CE11EEA430F18BF9EEAC8
:100DA000445F00F0748021EA045123EA0E0343F407
:100DB0008013DCF1200E32D322FA0CFE10EB0E0071
:100DC00023FA0CFE41EB0E01CCF1200E03FA0EFECD
:100DD00010EB0E00CCF1200E51F10001B1F5801F97
:100DE00032D201EB045112FA0EF2BDE8104058BFA6
:100DF0007047401C38BF5FEA420218BF70470028A6
:100E000014BF20F0010041F100014FEA410313F546
:100E1000001F38BF7047A1F1C04100F0DFBA012ABE
:100E200043EB0302ACF1200CDCF11F0E32BF4FF09C
:100E3000000E23FA0CF310EB030041EB0451B4EB6A
:100E4000115FD0D0A1EB045101F58011490801EBED
:100E500004515FEA30000ED350F1000038BF12FA9F
:100E60000EFE08D1BDE81040C9E7401C38BF5FEA5C
:100E70004202CAD1C3E7BDE810404FEA410313F56F
:100E8000001F38BF7047A1F1C04100F0A7BA9EEA29
:100E9000445F08D011EA5E0FBDE8104004BF01F0C6
:100EA000004100207047BDE8104070B500F048FADE
:100EB00064FBBE3E0000E0FF2DE9C04130B4DFF826
:100EC000A4C23CEA111418BF3CEA131400F0ED80F0
:100ED0001CEA111481EA030544EAD57418BF1CEA20
:100EE000131500F0C880A4EB050404F17F7404F529
:100EF00000344FF0004545EAC12145EAC32341EAE9
:100F0000505143EA52534FEAC0204FEAC22299425D
:100F100008BF904200F09D804FEA13650FF244161F
:100F2000765D4FEA134506FB05F7C7F1807706FBB0
:100F300007F74FEAD737A7FB03687642A7FB06CE31
:100F4000C8F5803838BFA8F1010807FB08E6A6FB02
:100F5000028C4FF0000EE6FB03CEDCF1000CCEF16C
:100F6000004E38BFAEF1010EA6FB0C584FF0000743
:100F7000E6FB0E87A1FB08C6A0FB07CE16EB0E060C
:100F80004FF0000545F10005E1FB076515F1E04E66
:100F90007EBFA4F580345FEA46066D4116F18007F6
:100FA00045F100054FEA172747EA05674FEA15257F
:100FB0004FEA0666A6F1DE46B6F1805F20D93846D4
:100FC00005EBC47124F0010C01EB0C11BCF1FE6FB8
:100FD00002D8F0BCBDE8008124425CBF01F5801E50
:100FE0009EEAC47F02D4F0BCBDE80081244200F137
:100FF0003980A1F1C041F0BCBDE8004100F0EEB97C
:101000004FEAD02040EA41504FEAD1214FEAD222A4
:1010100042EA43524FEAD323A7FB028607FB03664B
:1010200005FB02661EEA0E0F58BFA6EB0056B6EB94
:1010300000564FEA520E4EEAC37E18EB0E0E56EBE8
:10104000530EBCD518EB02085E417F1C55F100051C
:10105000B5E74FF480154FF000074FF000064FF052
:101060000008ACE701F1C04101F000414FF0000081
:10107000F0BCBDE800810CEA131511EA0C1F00D08A
:101080000CE013EA0C1F00F026804FF0000081EA0C
:10109000030101F00041F0BCBDE80081F0BCBDE8F7
:1010A000004181EA030100F099B9F0BCBDE80041BC
:1010B00070B500F045F900BF097EFC3E00F007B8AE
:1010C0004FF0000081EA030101F00041704781EA1E
:1010D000030100F083B9F0BCBDE8004122494FF0A4
:1010E00000007047FFFDFBF9F7F5F4F2F0EEEDEBD1
:1010F000E9E8E6E4E3E1E0DEDDDBDAD8D7D5D4D316
:10110000D1D0CFCDCCCBCAC8C7C6C5C4C2C1C0BF61
:10111000BEBDBCBBBAB9B8B7B6B5B4B3B2B1B0AF67
:10112000AEADACABAAA9A8A8A7A6A5A4A3A3A2A14B
:10113000A09F9F9E9D9C9C9B9A9999989797969506
:1011400095949393929191908F8F8E8E8D8C8C8BA2
:101150008B8A89898888878786858584848383822A
:10116000828181800000FF070000F87F4FEA115361
:10117000A3F58063D3F11E03A8BFD3F1200C08DBD5
:101180004FF0004242EAC12252EA505232FA03F0D2
:10119000704709420BD4102BC4BF0020704703F5E1
:1011A000787CBCF1FF3F05D04FF0FF3070474FF027
:1011B0000000704770B500F0C3F800BF499224806A
:1011C00000207047F0E7B0FA80F310FA03F10AD07C
:1011D000C3F11D0303F580634FEA03524FEA415008
:1011E00002EBD12170474FF00000704770B5DFF877
:1011F00048C11CEA111E1EBF1CEA13159EEA0C0F03
:1012000095EA0C0F00F06F8081EA03044EEAD47E69
:10121000AE4421EA4C1123EA4C1341F4801143F40B
:101220008013AEF17F7EA1FB024CA0FB0365361953
:1012300055EB0C05A1FB034C4CF10003A0FB021C79
:1012400016EB0C06654153F10003094218BF46F046
:10125000010613F4007F0BD14FEA03314FEA05304A
:1012600041EA155140EA165034036FF003020AE0D8
:101270004FEAC3214FEAC52041EA555140EA565092
:10128000F4026FF0020202EB2E4201EB025585EAF6
:10129000CE710AD05FEA440C18BF24F0004450F12C
:1012A000000041F1000120EAD47040F2FE7C62456A
:1012B00000D270BDA84214BF4FF080444FF04044AC
:1012C000002E08BF0024BEF1806FA8BFA1F1C0416D
:1012D000BDE8704080F2828001F1C04101F0004120
:1012E0004FF0000070470CEA13159EEA0C0F18BF70
:1012F00095EA0C0F06D081EA030E4FF000000EF0C5
:10130000004170BD00F01CF88900013E00F007B8F4
:1013100000F009B84FEA430C5FEA5C5C08D081EA50
:10132000030100F05BB84FEA410C5FEA5C5CF6D168
:1013300002494FF0000070470000FF070000F87FEF
:101340000EF1020E2EF0030E5EF8046B364205D449
:10135000012A43EB030515F5001F12D8012841EBC4
:10136000010C1CF5001F0CD80ED14FEAD17C0CEB00
:101370004C0C0CF1020C15F5001F08BF4CEBD37C94
:1013800004E04FF0080C01E04FEAD37C0CEB4C0575
:1013900026FA05F606F00706B6F1040C06D20EEBA7
:1013A000860CBDE870404CF0010C6047DFE80CF0A3
:1013B000090B02024FF00041A1F500214FF000009F
:1013C00070BD19461046012851EB010418BFD4F531
:1013D000001484BF002001F0004170BD0808A0F592
:1013E00000114FEA3101704710B591EA030F48BF71
:1013F00083F000433FF5C0AC841A71EB030C07D2B5
:101400008CF0004C121943EB0C03001B61EB0C0138
:101410004FEA1154A4EB135CDFF8A4E11EEA430F7A
:1014200018BF9EEA445F00F0B48021EA045123EA29
:101430006E035242C3EB6E0338BF5B1EDCF1200E1D
:1014400025D322FA0CFE10EB0E0043FA0CFE41EB02
:101450000E01CCF1200E03FA0EFE10EB0E00CCF1C3
:10146000200E51F1000129D401EB045112FA0EF2C1
:10147000BDE8104058BF7047401C1CBFB2F1004F80
:10148000704700280CBF491C20F00100704712EB88
:10149000020E43EB030218BF4FF0010E4EEA420268
:1014A000ACF1200CDCF11E0E56D943FA0CFE10EB09
:1014B0000E00CCF11E0E51F1FF31D5D50EF1010E0B
:1014C00012FA0EFE404141EB010101EB445C5FEA80
:1014D0005C5C10D901EB045110EBDE7038BFBEF13B
:1014E000004FBDE8104018BF704700280CBF491CD2
:1014F00020F00100704734D24FEAD42C24F4006469
:1015000011F500111BD0B1FA81F20B3AA41AA41EF6
:10151000D2F12003914030FA03F31943904001EBDC
:10152000CC7101EB0451002CBDE81040A8BF7047FE
:1015300001F1C04101F000414FF000007047B0FAE6
:1015400080F310FA03F102D1BDE810407047E41AAD
:10155000173C4805C90AE2E701EB0451BDE8104019
:10156000704749104FEA300001EB0451BDE81040CC
:1015700002E04FF0000170474A0008BF0042F8D077
:10158000B2F5001F28BF704701F000414FF0000086
:1015900070479EEA445F07D011EA5E0FBDE8104035
:1015A00004BF002100207047BDE8104070B5FFF770
:1015B000C7FE00BF40DFF63E104683F00041704793
:1015C0000000E0FFF1EE100A4FF6FF71C0F2C031EB
:1015D00020EA010040F04070E1EE100A7047FF2160
:1015E00041EAD050C00570470816000800000020EE
:1015F00008000000D40100081016000808000020B0
:1016000078060000F00100080024F400000000004B
:040000050800019955
:00000001FF
