:020000040800F2
:10000000700600203902000841020008430200087F
:1000100045020008470200084902000800000000ED
:100020000000000000000000000000004B0200087B
:100030004D020008000000004F020008ED05000816
:10004000530200085302000853020008530200083C
:10005000530200085302000853020008530200082C
:10006000530200085302000853020008530200081C
:10007000530200085302000853020008530200080C
:100080005302000853020008530200080000000059
:100090000000000000000000000000005302000803
:1000A00053020008530200085302000853020008DC
:1000B00053020008530200085302000853020008CC
:1000C00053020008530200085302000853020008BC
:1000D0005302000853020008530200080000000009
:1000E000F502000853020008530200080000000057
:1000F00000000000000000000000000053020008A3
:1001000000000000530200085302000853020008D8
:1001100000000000000000000000000000000000DF
:10012000530200085302000853020008530200085B
:100130005302000800000000000000000000000062
:100140000000000000000000000000005302000852
:10015000530200085302000853020008530200082B
:1001600053020008530200080000000000000000D5
:10017000000000000000000000000000000000007F
:100180000000000053020008000000000000000012
:10019000530200085302000800F002F800F03CF897
:1001A0000AA090E8000C82448344AAF10107DA45D2
:1001B00001D100F031F8AFF2090EBAE80F0013F0E8
:1001C000010F18BFFB1A43F001031847440D00004C
:1001D000640D0000103A24BF78C878C1FAD85207DD
:1001E00024BF30C830C144BF04680C6070470000B1
:1001F0000023002400250026103A28BF78C1FBD830
:10020000520728BF30C148BF0B6070471FB500F0D0
:1002100071FE1FBD10B510BD00F031F81146FFF79B
:10022000F5FF00F08FFA00F04FF803B4FFF7F2FF8C
:1002300003BC00F057F80000094880470948004710
:10024000FEE7FEE7FEE7FEE7FEE7FEE7FEE7FEE786
:10025000FEE7FEE704480549054A064B70470000E3
:10026000B9060008990100087000002070060020FF
:10027000700200207002002070477047704775467A
:1002800000F02CF8AE4605006946534620F0070002
:10029000854618B020B5FFF7DDFFBDE820404FF0E0
:1002A00000064FF000074FF000084FF0000BAC467F
:1002B000ACE8C009ACE8C009ACE8C009ACE8C009CA
:1002C00021F007018D46704710B50446AFF300805A
:1002D0002046BDE81040FFF7A8BF00000048704767
:1002E0000800002001491820ABBEFEE726000200EE
:1002F0007047000080B50D2000F01AFA002808BFF2
:1003000080BD40F26C00C2F20000002101600D20AF
:1003100000F0F8F980BD000043F60042C4F201028B
:100320000121136801FA00F01843106070470000C3
:10033000F0B581B01F4616460D4600F023FA43F68D
:100340004401C4F202010A6843F6080342F4804201
:100350000A60E91705EB917121F00301C4F2010372
:100360000F22CC588A4024EA0202CA506FF02F02B2
:1003700002EB8502CC5890402043C85043F60C4015
:10038000C4F20100016806FA05F211430160284633
:10039000FFF7C2FF00F09EF9384600F0A3F901B064
:1003A000F0BD000070B5054600F13E4000F1FF7061
:1003B0004FEAB020144603280E4632D8DFE800F09A
:1003C0000216242F00F07AF840F60040C4F2020032
:1003D000854224D040F60000C4F20200854213D0CA
:1003E00040F20040C4F2020085421AD100F070F8D9
:1003F00040F60040C4F20200854210D040F60000F2
:10040000C4F2020085420CD100F06CF840F60040C6
:10041000C4F20200854208BF00F06EF801E000F06F
:100420006BF828463146224600F002F870BD000005
:1004300080B549004FF0030CD0F800E00CFA01F34E
:100440002EEA03030360036802FA01F11943016015
:1004500080BD000080B549004FF0030CD0F808E0E3
:100460000CFA01F32EEA03038360836802FA01F1B8
:100470001943816080BD000080B54FF0010CD0F8B9
:1004800004E00CFA01F32EEA03034360436802FA26
:1004900001F11943416080BD80B549004FF0030C64
:1004A000D0F80CE00CFA01F32EEA0303C360C36832
:1004B00002FA01F11943C16080BD000043F630002B
:1004C000C4F20200016841F00101016070470000C0
:1004D00043F63000C4F20200016841F002010160FD
:1004E0007047000043F63000C4F20200016841F09A
:1004F000040101607047000043F63000C4F20200BE
:10050000016841F0080101607047000043F60800EF
:10051000C4F20200D0F8F81321F00F01C0F8F8136C
:10052000D0F8F81341F00201C0F8F81350F8081C95
:1005300041F0010140F8081C50F8081C8907FBD560
:1005400050F8081C542221F0807140F8081C50F823
:10055000041C21F4800140F8041C50F8041C40F8ED
:10056000041C50F8041C62F38E1140F8041C50F86F
:10057000041C082262F3050140F8041C50F8041C16
:1005800021F4403140F8041C50F8081C41F08071FF
:1005900040F8081C50F8081C8901FBD4016821F0C0
:1005A00003010160016841F002010160016801F08E
:1005B0000C010829FAD1016821F0F00101600168FD
:1005C00021F4E0510160016841F48051016001684B
:1005D00021F46041016040F200004BF60051C2F28C
:1005E0000000C0F2015101607047000040F2680055
:1005F000C2F200000168002908BF70470168013994
:10060000016070474EF21000CEF20000016821F048
:1006100001010160704700004EF21000CEF20000B0
:10062000016841F001010160704700000000000016
:1006300010B50446FFF7E6FF204600F05CFA9FED98
:10064000140B53EC102B00F069FA9FED130B53ECD5
:10065000102B00F063FA9FED120B53EC102B00F0FF
:1006600075F900F01BFA4EF21004CEF2000460603F
:1006700000F040F80020A060206840F004002060F6
:10068000206840F002002060FFF7C6FF10BD00BFE9
:10069000FCA9F1D24D62503F00000000F4069441E5
:1006A000000000000000F0BF4EF21800CEF2000083
:1006B00000210160704700004EF68850CEF2000025
:1006C000016841F4700101604FF0006140F8801C46
:1006D000704700004EF20410CEF200004FF480711B
:1006E000016070474EF228410001CEF2000108700F
:1006F000704700004EF62350CEF20000002101703A
:100700007047000043F61442C4F20102012113684D
:1007100001FA00F0184310607047000040F26801D1
:10072000C2F20001086000BF08680028FCD17047D1
:1007300043F61441C4F20101096821FA00F000F007
:10074000010070471424C4F2020400F037F8FFF7E8
:10075000D1FDFFF74BFF40F26C05C2F2000500BF70
:10076000206880F0200020604FF47A70FFF7D6FFF9
:1007700028680130B0F10A0118BF01462960FFF76F
:1007800093FFEDE7A0F18040A0F501304FEAB020E3
:1007900006288EBF002002A151F82000704700BF3C
:1007A000010000000200000003000000040000003F
:1007B00000000000000000000700000010B5FFF777
:1007C000A5FE0120FFF734FF40F60004C4F2020446
:1007D00020460D2101220023FFF7AAFD20460D210E
:1007E0000022FFF7DFFD20460D210122FFF754FE16
:1007F00000F002F810BD000070B50024C4F202043D
:10080000204605210122FFF7CDFD204606210122C9
:10081000FFF7C8FD204607210122FFF7C3FD04F5BD
:100820008065284606210122FFF7BCFD04F500661D
:10083000304607210122FFF7B5FD2046092101229C
:10084000FFF7B0FD204608210122FFF7ABFD284647
:100850000A210122FFF7A6FD204605210022FFF70D
:100860000BFE204606210022FFF706FE2046072148
:100870000022FFF701FE284606210022FFF7FCFDBB
:10088000304607210022FFF7F7FD2046092100220C
:10089000FFF7F2FD204608210022FFF7EDFD284674
:1008A0000A210022FFF7E8FD204605210022FFF77C
:1008B000F3FD204606210022FFF7EEFD204607212A
:1008C0000022FFF7E9FD284606210022FFF7E4FD9C
:1008D000304607210022FFF7DFFD204609210022D4
:1008E000FFF7DAFD204608210022FFF7D5FD284654
:1008F0000A210022FFF7D0FD204605210222FFF742
:10090000A9FD204606210222FFF7A4FD204607216B
:100910000222FFF79FFD284606210222FFF79AFDDB
:10092000304607210222FFF795FD204609210222C9
:10093000FFF790FD204608210222FFF78BFD284695
:100940000A210222FFF786FD70BD000010B591EA72
:10095000030F48BF83F0004300F1E681841A71EB76
:10096000030C05D2121943EB0C03001B61EB0C01C5
:100970004FEA1154A4EB135CDFF81CE11EEA430FAD
:1009800018BF9EEA445F00F0748021EA045123EA14
:100990000E0343F48013DCF1200E32D322FA0CFE56
:1009A00010EB0E0023FA0CFE41EB0E01CCF1200EF1
:1009B00003FA0EFE10EB0E00CCF1200E51F10001F7
:1009C000B1F5801F32D201EB045112FA0EF2BDE8EC
:1009D000104058BF7047401C38BF5FEA420218BF42
:1009E0007047002814BF20F0010041F100014FEAD8
:1009F000410313F5001F38BF7047A1F1C04100F05B
:100A000085B9012A43EB0302ACF1200CDCF11F0E87
:100A100032BF4FF0000E23FA0CF310EB030041EB52
:100A20000451B4EB115FD0D0A1EB045101F580115A
:100A3000490801EB04515FEA30000ED350F1000089
:100A400038BF12FA0EFE08D1BDE81040C9E7401CBD
:100A500038BF5FEA4202CAD1C3E7BDE810404FEA9F
:100A6000410313F5001F38BF7047A1F1C04100F0EA
:100A70004DB99EEA445F08D011EA5E0FBDE8104010
:100A800004BF01F0004100207047BDE8104070B580
:100A900000F0EEF864FBBE3E0000E0FF4FEA1153A9
:100AA000A3F58063D3F11E03A8BFD3F1200C08DBAC
:100AB0004FF0004242EAC12252EA505232FA03F0A9
:100AC000704709420BD4102BC4BF0020704703F5B8
:100AD000787CBCF1FF3F05D04FF0FF3070474FF0FE
:100AE0000000704770B500F0C3F800BF4992248041
:100AF00000207047F0E7B0FA80F310FA03F10AD053
:100B0000C3F11D0303F580634FEA03524FEA4150DE
:100B100002EBD12170474FF00000704770B5DFF84D
:100B200048C11CEA111E1EBF1CEA13159EEA0C0FD9
:100B300095EA0C0F00F06F8081EA03044EEAD47E40
:100B4000AE4421EA4C1123EA4C1341F4801143F4E2
:100B50008013AEF17F7EA1FB024CA0FB036536192A
:100B600055EB0C05A1FB034C4CF10003A0FB021C50
:100B700016EB0C06654153F10003094218BF46F01D
:100B8000010613F4007F0BD14FEA03314FEA053021
:100B900041EA155140EA165034036FF003020AE0AF
:100BA0004FEAC3214FEAC52041EA555140EA565069
:100BB000F4026FF0020202EB2E4201EB025585EACD
:100BC000CE710AD05FEA440C18BF24F0004450F103
:100BD000000041F1000120EAD47040F2FE7C624541
:100BE00000D270BDA84214BF4FF080444FF0404483
:100BF000002E08BF0024BEF1806FA8BFA1F1C04144
:100C0000BDE8704080F2828001F1C04101F00041F6
:100C10004FF0000070470CEA13159EEA0C0F18BF46
:100C200095EA0C0F06D081EA030E4FF000000EF09B
:100C3000004170BD00F01CF88900013E00F007B8CB
:100C400000F009B84FEA430C5FEA5C5C08D081EA27
:100C5000030100F05BB84FEA410C5FEA5C5CF6D13F
:100C600002494FF0000070470000FF070000F87FC6
:100C70000EF1020E2EF0030E5EF8046B364205D420
:100C8000012A43EB030515F5001F12D8012841EB9B
:100C9000010C1CF5001F0CD80ED14FEAD17C0CEBD7
:100CA0004C0C0CF1020C15F5001F08BF4CEBD37C6B
:100CB00004E04FF0080C01E04FEAD37C0CEB4C054C
:100CC00026FA05F606F00706B6F1040C06D20EEB7E
:100CD000860CBDE870404CF0010C6047DFE80CF07A
:100CE000090B02024FF00041A1F500214FF0000076
:100CF00070BD19461046012851EB010418BFD4F508
:100D0000001484BF002001F0004170BD0808A0F568
:100D100000114FEA3101704710B591EA030F48BF47
:100D200083F000433FF51AAE841A71EB030C07D22F
:100D30008CF0004C121943EB0C03001B61EB0C010F
:100D40004FEA1154A4EB135CDFF8A4E11EEA430F51
:100D500018BF9EEA445F00F0B48021EA045123EA00
:100D60006E035242C3EB6E0338BF5B1EDCF1200EF4
:100D700025D322FA0CFE10EB0E0043FA0CFE41EBD9
:100D80000E01CCF1200E03FA0EFE10EB0E00CCF19A
:100D9000200E51F1000129D401EB045112FA0EF298
:100DA000BDE8104058BF7047401C1CBFB2F1004F57
:100DB000704700280CBF491C20F00100704712EB5F
:100DC000020E43EB030218BF4FF0010E4EEA42023F
:100DD000ACF1200CDCF11E0E56D943FA0CFE10EBE0
:100DE0000E00CCF11E0E51F1FF31D5D50EF1010EE2
:100DF00012FA0EFE404141EB010101EB445C5FEA57
:100E00005C5C10D901EB045110EBDE7038BFBEF111
:100E1000004FBDE8104018BF704700280CBF491CA8
:100E200020F00100704734D24FEAD42C24F400643F
:100E300011F500111BD0B1FA81F20B3AA41AA41ECD
:100E4000D2F12003914030FA03F31943904001EBB3
:100E5000CC7101EB0451002CBDE81040A8BF7047D5
:100E600001F1C04101F000414FF000007047B0FABD
:100E700080F310FA03F102D1BDE810407047E41A84
:100E8000173C4805C90AE2E701EB0451BDE81040F0
:100E9000704749104FEA300001EB0451BDE81040A3
:100EA00002E04FF0000170474A0008BF0042F8D04E
:100EB000B2F5001F28BF704701F000414FF000005D
:100EC00070479EEA445F07D011EA5E0FBDE810400C
:100ED00004BF002100207047BDE8104070B5FFF747
:100EE000C7FE00BF40DFF63E104683F0004170476A
:100EF0000000E0FFF1EE100A4FF6FF71C0F2C031C2
:100F000020EA010040F04070E1EE100A7047000056
:100F1000300F00080000002008000000D401000885
:100F2000380F00080800002068060000F0010008E3
:080F30000024F40000000000A1
:040000050800019955
:00000001FF
